:020000040000fa
:080000000002040000000000f2
:020000040000fa
:04000800fc060000f2
:020000040000fa
:04000c00fc060000ee
:020000040000fa
:04001000fc060000ea
:020000040000fa
:04001400fc060000e6
:020000040000fa
:04001800fc060000e2
:020000040000fa
:04001c00fc060000de
:020000040000fa
:04002000fc060000da
:020000040000fa
:04002400fc060000d6
:020000040000fa
:04002800fc060000d2
:020000040000fa
:04002c000a030000c3
:020000040000fa
:04003000fc060000ca
:020000040000fa
:04003400bc04000008
:020000040000fa
:04003800fc060000c2
:020000040000fa
:04003c00fc060000be
:020000040000fa
:04004000fc060000ba
:020000040000fa
:04004400d0020000e6
:020000040000fa
:04004800fc060000b2
:020000040000fa
:04004c00fc060000ae
:020000040000fa
:04005000fc060000aa
:020000040000fa
:04005400fc060000a6
:020000040000fa
:04005800fc060000a2
:020000040000fa
:04005c00fc0600009e
:020000040000fa
:04006000fc0600009a
:020000040000fa
:04006400fc06000096
:020000040000fa
:04006800fc06000092
:020000040000fa
:04006c00fc0600008e
:020000040000fa
:04007000fc0600008a
:020000040000fa
:04007400fc06000086
:020000040000fa
:04007800fc06000082
:020000040000fa
:04007c00fc0600007e
:020000040000fa
:04008000fc0600007a
:020000040000fa
:04008400fc06000076
:020000040000fa
:04008800fc06000072
:020000040000fa
:04008c00fc0600006e
:020000040000fa
:04009000fc0600006a
:020000040000fa
:04009400fc06000066
:020000040000fa
:04009800fc06000062
:020000040000fa
:04009c00fc0600005e
:020000040000fa
:0400a000fc0600005a
:020000040000fa
:0400a400fc06000056
:020000040000fa
:0400a800fc06000052
:020000040000fa
:0400ac00fc0600004e
:020000040000fa
:0400b000fc0600004a
:020000040000fa
:0400b400fc06000046
:020000040000fa
:0400b800fc06000042
:020000040000fa
:0400bc00fc0600003e
:020000040000fa
:0400c000fc0600003a
:020000040000fa
:0400c400fc06000036
:020000040000fa
:0400c800fc06000032
:020000040000fa
:0400cc00fc0600002e
:020000040000fa
:0400d000fc0600002a
:020000040000fa
:0400d400fc06000026
:020000040000fa
:0400d800fc06000022
:020000040000fa
:0400dc00fc0600001e
:020000040000fa
:0400e000fc0600001a
:020000040000fa
:0400e400fc06000016
:020000040000fa
:0400e800fc06000012
:020000040000fa
:0400ec00fc0600000e
:020000040000fa
:0400f000fc0600000a
:020000040000fa
:0400f400fc06000006
:020000040000fa
:0400f800fc06000002
:020000040000fa
:0400fc00fc060000fe
:020000040000fa
:04010000fc060000f9
:020000040000fa
:04010400fc060000f5
:020000040000fa
:04010800fc060000f1
:020000040000fa
:04010c00fc060000ed
:020000040000fa
:04011000fc060000e9
:020000040000fa
:04011400fc060000e5
:020000040000fa
:04011800fc060000e1
:020000040000fa
:04011c00fc060000dd
:020000040000fa
:04012000fc060000d9
:020000040000fa
:04012400fc060000d5
:020000040000fa
:04012800fc060000d1
:020000040000fa
:04012c00fc060000cd
:020000040000fa
:04013000fc060000c9
:020000040000fa
:04013400fc060000c5
:020000040000fa
:04013800fc060000c1
:020000040000fa
:04013c00fc060000bd
:020000040000fa
:04014000fc060000b9
:020000040000fa
:04014400fc060000b5
:020000040000fa
:04014800fc060000b1
:020000040000fa
:04020800fc060000f0
:020000040000fa
:04020c00fc060000ec
:020000040000fa
:04021000fc060000e8
:020000040000fa
:04021400fc060000e4
:020000040000fa
:04021800fc060000e0
:020000040000fa
:04021c00fc060000dc
:020000040000fa
:04022000fc060000d8
:020000040000fa
:04022400fc060000d4
:020000040000fa
:04022800fc060000d0
:020000040000fa
:04022c000a030000c1
:020000040000fa
:04023000fc060000c8
:020000040000fa
:04023400bc04000006
:020000040000fa
:04023800fc060000c0
:020000040000fa
:04023c00fc060000bc
:020000040000fa
:04024000fc060000b8
:020000040000fa
:04024400d0020000e4
:020000040000fa
:04024800fc060000b0
:020000040000fa
:04024c00fc060000ac
:020000040000fa
:04025000fc060000a8
:020000040000fa
:04025400fc060000a4
:020000040000fa
:04025800fc060000a0
:020000040000fa
:04025c00fc0600009c
:020000040000fa
:04026000fc06000098
:020000040000fa
:04026400fc06000094
:020000040000fa
:04026800fc06000090
:020000040000fa
:04026c00fc0600008c
:020000040000fa
:04027000fc06000088
:020000040000fa
:04027400fc06000084
:020000040000fa
:04027800fc06000080
:020000040000fa
:04027c00fc0600007c
:020000040000fa
:04028000fc06000078
:020000040000fa
:04028400fc06000074
:020000040000fa
:04028800fc06000070
:020000040000fa
:04028c00fc0600006c
:020000040000fa
:04029000fc06000068
:020000040000fa
:04029400fc06000064
:020000040000fa
:04029800fc06000060
:020000040000fa
:04029c00fc0600005c
:020000040000fa
:0402a000fc06000058
:020000040000fa
:0402a400fc06000054
:020000040000fa
:0402a800fc06000050
:020000040000fa
:0402ac00fc0600004c
:020000040000fa
:0402b000fc06000048
:020000040000fa
:0402b400fc06000044
:020000040000fa
:0402b800fc06000040
:020000040000fa
:0402bc00fc0600003c
:020000040000fa
:0402c000fc06000038
:020000040000fa
:0402c400fc06000034
:020000040000fa
:0402c800fc06000030
:020000040000fa
:0402cc00fc0600002c
:020000040000fa
:0402d000fc06000028
:020000040000fa
:0402d400fc06000024
:020000040000fa
:0402d800fc06000020
:020000040000fa
:0402dc00fc0600001c
:020000040000fa
:0402e000fc06000018
:020000040000fa
:0402e400fc06000014
:020000040000fa
:0402e800fc06000010
:020000040000fa
:0402ec00fc0600000c
:020000040000fa
:0402f000fc06000008
:020000040000fa
:0402f400fc06000004
:020000040000fa
:0402f800fc06000000
:020000040000fa
:0402fc00fc060000fc
:020000040000fa
:04030000fc060000f7
:020000040000fa
:04030400fc060000f3
:020000040000fa
:04030800fc060000ef
:020000040000fa
:04030c00fc060000eb
:020000040000fa
:04031000fc060000e7
:020000040000fa
:04031400fc060000e3
:020000040000fa
:04031800fc060000df
:020000040000fa
:04031c00fc060000db
:020000040000fa
:04032000fc060000d7
:020000040000fa
:04032400fc060000d3
:020000040000fa
:04032800fc060000cf
:020000040000fa
:04032c00fc060000cb
:020000040000fa
:04033000fc060000c7
:020000040000fa
:04033400fc060000c3
:020000040000fa
:04033800fc060000bf
:020000040000fa
:04033c00fc060000bb
:020000040000fa
:04034000fc060000b7
:020000040000fa
:04034400fc060000b3
:020000040000fa
:04034800fc060000af
:020000040000fa
:100400008fd521000e7f22000e0188000000000021
:10041000000020000000e000020032000001200087
:100420002002880014000700750207000000e000a9
:1004300003003a00404e2200010020000200370075
:100440000000200001002000810f70000100320038
:1004500014000700000020000000e000020032004d
:100460000000020000000000b824020000000000ac
:100470000040da000000fe004440a900e04e2000e9
:100480000000e0000300320000002000a00188000e
:100490004440a800000006008a1f78008b1f7800e7
:1004a0000000060091018800800478000000eb0045
:1004b0001a003700e284440032a0b4009905ba0063
:1004c000e284440032a0b4009906ba00e2844400f9
:1004d00032a0b4000006eb00476fde00fd07b2005b
:1004e000636ce10003003a00ebff07000000eb0043
:1004f0000a003700606ce10004003a00005deb0088
:100500008b05e900fdff3e00040037006168e10053
:10051000010032000086eb000b00070019c7ba008b
:100520001905ba000e04e00003003a000a00e000da
:10053000e0ff3a0000000600fe07b2009e018800be
:100540008a047800f5ff3700395dba008b05e900b1
:100550000c003200295dba008b05e900080032006a
:100560000c00e00003003a00e284440032a0b40032
:10057000f5ff370019ddba008b05e900faff3a00f4
:100580008904e800e184440032a0b40000000600c1
:10059000000000000000000000000000000000005b
:1005a000809fbe00829fbe00849fbe00869fbe00cb
:1005b0003400f80000002000a00188000000fa00cc
:1005c00084e0a900c08220003002be002003be00eb
:1005d00010002000010020006011b800000042005f
:1005e00081804a0002014b0083814b00c4822000bd
:1005f000009abe000292be000080fa003400f900aa
:100600004f03be004f02be004f01be004f00be00b0
:10061000004006003600f800809fbe00829fbe00aa
:10062000849fbe00869fbe00889fbe008a9fbe003a
:100630003400f80000002000a00188000000fa004b
:100640008420a900a0428000e10f500010003a0071
:10065000604280000000e0000d003a000621ef003b
:10066000c48220006000b8006011b800009abe008b
:100670000292be00448320006000b8006011b80000
:10068000009abe000292be005428ef00b00037006e
:10069000408320005001be004000be00c483200003
:1006a000009abe000292be00600880000000e800d0
:1006b0006104b8006055b800c08220005001be003f
:1006c0004000be000203be000002be000800be00e3
:1006d0000a01be00cb0107000203be000002be00fb
:1006e000000a80008000eb006011b80000004200aa
:1006f00081804a0002014b0083814b00448320002b
:10070000009abe000292be00408320003002be006c
:100710002003be00c08320005001be004000be0088
:100720000000520081805a0002015b0083815b005f
:1007300044842000009abe000292be004084200043
:100740003002be002003be00900f200001002000f8
:100750006011b8000020e10001a8e10002b0e10052
:1007600003b8e1007a003600a04280000000e000fb
:100770001c003a00604280000000e00019003a00ce
:10078000408420003002be002003be0040ce200086
:10079000010020006011b8000020e10001a8e10084
:1007a00002b0e10003b8e1000e00360040842000f2
:1007b0003002be002003be0090d7200001002000c0
:1007c0006011b8000020e10001a8e10002b0e100e2
:1007d00003b8e10003003e001000200060428800e2
:1007e0005b00370060428000e10f500058003a0083
:1007f000408420003002be002003be0000272000fd
:10080000010020006011b8000020e10001a8e10013
:1008100002b0e10003b8e1004d003e00408420003a
:100820003002be002003be00a00f20000100200007
:100830006011b8000020e10001a8e10002b0e10071
:1008400003b8e10011003600408420003002be00f1
:100850002003be00d0152000010020006011b80068
:100860000020e10001a8e10002b0e10003b8e100ce
:1008700006003e007242800080d3210001c3b30015
:1008800002004000014878001b003700408420002f
:100890003002be002003be00401f200001002000e7
:1008a0006011b8000020e10001a8e10002b0e10001
:1008b00003b8e10010003600408420003002be0082
:1008c0002003be0000272000010020006011b800b6
:1008d0000020e10001a8e10002b0e10003b8e1005e
:1008e00005003e007242800080d3210011c3b30096
:1008f0000200400001487800704280000000e800db
:10090000704288007142800000022000808f5000f9
:100910000f003a004e28ef004c28ef001000200096
:10092000a0428800448320006000b8006011b80035
:10093000009abe000292be00c48320006000b8008e
:100940006011b800009abe000292be00de0d0700e2
:100950000080fa003400f9004f05be004f04be00cd
:100960004f03be004f02be004f01be004f00be004d
:100970003600f900004006003600f800809fbe00f7
:10098000829fbe00849fbe00869fbe003400f80098
:1009900000002000a00188000000fa008460a90087
:1009a00052c8bf000000fb0031072000810f50003b
:1009b0003900320031072000810f50000a003c004e
:1009c00071062000810f50001800320091062000af
:1009d000810f5000c000320061062000810f5000de
:1009e000a2003200ef00370061072000810f5000a5
:1009f0004700320061072000810f500004003c00d6
:100a000041072000810f50005f003200e5003700f1
:100a100071072000810f5000b700320091072000bd
:100a2000810f500076003200de0037004080200049
:100a30003002be002003be00800120000100200023
:100a40006011b8000020e10001a8e10002b0e1005f
:100a500003b8e100c6003600e0408000c20707008e
:100a6000e04080008000e800e00020000001780005
:100a7000110009008200d8008000fd00e0408800dd
:100a8000448020006000b8006011b800009abe00e9
:100a90000292be00c3003700408020003002be003a
:100aa0002003be0020002000010020006011b800db
:100ab0000020e10001a8e10002b0e10003b8e1007c
:100ac000ad003600f040800046080700f04080008e
:100ad0008000e80070002800008060000000e00056
:100ae00004003d000000e90081ff2f00008070003d
:100af0000000e800f0408800448020006000b8005a
:100b00006011b800009abe000292be00a500370036
:100b1000408020003002be002003be0020002000e4
:100b2000010020006011b8000020e10001a8e100f0
:100b300002b0e10003b8e1009100360000418000fe
:100b400028090700004180008000e800100028000c
:100b5000008060000000e00004003d000000e900ab
:100b6000e1ff2f00008070000000e80000418800d5
:100b7000448020006000b8006011b800009abe00f8
:100b80000292be0087003700408020003002be0085
:100b90002003be0030062000010020006011b800d4
:100ba0000020e10001a8e10002b0e10003b8e1008b
:100bb0007500360010418000a90807001041800030
:100bc0008000e80030002800008060000000e000a5
:100bd00004003d000000e900c1ff2f00008070000c
:100be0000000e80010418800448020006000b80048
:100bf0006011b800009abe000292be006900370082
:100c0000408020003002be002003be009000200083
:100c1000010020006011b8000020e10001a8e100ff
:100c200002b0e10003b8e100590036002041800025
:100c30000c0c0700204180008000e800e00020004c
:100c400000017800110009008200d8008000fd003a
:100c500020418800448020006000b8006011b80086
:100c6000009abe000292be004e0037004080200075
:100c70003002be002003be009000200001002000d2
:100c80006011b8000020e10001a8e10002b0e1001d
:100c900003b8e1004000360030418000e30807005f
:100ca000304180008000e800300020000001780022
:100cb000110009008200d8008000fd00304188004a
:100cc000448020006000b8006011b800009abe00a7
:100cd0000292be003300370029080700448020003c
:100ce00010002000010020006011b800009abe0032
:100cf0000292be002b003700408020003002be0070
:100d00002003be0090002000010020006011b80008
:100d10000020e10001a8e10002b0e10003b8e10019
:100d20001f00360040418000f90907004041800063
:100d30008000e80070002800008060000000e000f3
:100d400004003d000000e90081ff2f0000807000da
:100d50000000e80040418800448020006000b800a6
:100d60006011b800009abe000292be000d0037006c
:100d7000000000000b0037000000000009003700f1
:100d800000000000070037000000000005003700e9
:100d900000000000030037000000000001003700e1
:100da00000000000408020003002be002003be0092
:100db00010002000010020006011b8000000420077
:100dc00081804a0002014b0083814b004480200057
:100dd000009abe000292be000080fa003400f900c2
:100de0004f03be004f02be004f01be004f00be00c9
:100df0003600f900004006000040da000000fe0066
:100e000000000500889fbe008a9fbe008c1f7800ee
:100e10000006eb00e00f5000e08f5800e00f590093
:100e2000e08f590007003d006044b8006055b800ed
:100e30000000540081805c0002015d0083815d0040
:100e40001c002000e00f5200e08f5a00e00f5b0012
:100e5000e08f5b0007003d006044b8006055b800bb
:100e60000402540085825c0006035d0087835d00f8
:100e70000c00a2000c0007000c00e000060032008d
:100e80006022b8006033b8000000520081805a0030
:100e900002015b0083815b004f0678004f05be00b6
:100ea0004f04be0000000600889fbe008a9fbe005f
:100eb0008c9fbe000404b8000506b80089044600f3
:100ec00060854e000606b8000a054600e0854e0023
:100ed0000706b8008b054600040eb80089044600da
:100ee0000a854e00e0854d00050eb8000a05460053
:100ef0008b854e00060eb8008b0546000416b80020
:100f00000a0546008b854e000516b8008b05460085
:100f1000041eb8008b0546000800be000a01be0092
:100f20004f06be004f05be004f04be000000060085
:100f30008001780002003700b15978000201e90011
:100f40000200e000fcff3a0000000600800078008c
:100f5000040037003104e00002003a0000005100b4
:100f600000000600010178000108a300f9ff3a0023
:100f70008101780031017800f4ef2f000202420075
:100f80000281ea00020162000408280004016100f5
:100f9000f7ff320083007800010178003104e0009f
:0c0fa000fdff3a000000510000000600b8
:020000040000fa
:100fac00427400006e20000030000000427400000b
:100fbc006e20000031000000427400006e20000022
:100fcc0032000000427400006e200000330000006c
:100fdc00427400006e2000003400000042740000d7
:100fec006e20000035000000427400006e200000ee
:100ffc0036000000427400006e2000003700000034
:10100c00427400006e2000003800000042740000a2
:10101c006e20000039000000427400006e200000b9
:10102c003130000000420000746e000020310000de
:10103c0031000000427400006e20000031320000cc
:10104c0000420000746e00002031000033000000ec
:10105c00427400006e200000313400000042000099
:10106c00746e000020310000350000004274000056
:10107c006e2000003136000000420000746e00004b
:10108c002031000037000000427400006e20000088
:10109c003138000000420000746e00002031000066
:1010ac0039000000427400006e2000003230000055
:1010bc0000420000746e000020320000310000007d
:1010cc00427400006e20000032320000004200002a
:1010dc00746e0000203200003300000042740000e7
:1010ec006e2000003234000000420000746e0000dc
:1010fc002032000035000000427400006e20000019
:10110c003236000000420000746e000020320000f5
:10111c0037000000427400006e20000032380000de
:10112c0000420000746e0000203200003900000004
:10113c00427400006e2000003330000000420000ba
:10114c00746e000020330000310000006e6f000050
:10115c00744600006f7500006e64000000300000e3
:10116c0030300000303000003030000030310000f2
:10117c0031310000313000003131000031300000dd
:10118c0030310000313100003030000030310000cf
:10119c0031300000303000003131000031300000bf
:1011ac0030300000303000003030000030310000b2
:1011bc00313100003130000031310000313100009c
:1011cc003031000031310000303000003030000090
:1011dc00313000003030000031310000313000007f
:1011ec003030000030300000303000003031000072
:1011fc00313100003130000031310000313000005d
:10120c00313100003131000030300000303100004d
:10121c00303000003030000031310000313000003f
:10122c003030000030300000303000003031000031
:10123c00313100003130000031310000313100001b
:10124c00313100003131000030300000303000000e
:10125c0030300000303000003131000031300000ff
:10126c0030300000303000003030000030310000f1
:10127c0031310000313000003131000031300000dc
:10128c0030300000303000003030000030310000d1
:10129c0031310000313100003131000031300000bb
:1012ac0030300000303000003030000030310000b1
:1012bc00313100003130000031310000313100009b
:1012cc003030000030300000303000003030000092
:1012dc00313100003131000031310000313000007b
:1012ec003030000030300000303000003031000071
:1012fc00313100003130000031310000313000005c
:10130c00313000003030000030300000303100004f
:10131c00303100003131000031310000313000003b
:10132c003030000030300000303000003031000030
:10133c00313100003130000031310000313100001a
:10134c003130000030300000303000003030000010
:10135c0030310000313100003131000031300000fb
:10136c0030300000303000003030000030310000f0
:10137c0031310000313000003131000031300000db
:10138c0030310000303000003030000030310000cf
:10139c0031300000313100003131000031300000bb
:1013ac0030300000303000003030000030310000b0
:1013bc00313100003130000031310000313100009a
:1013cc003031000030300000303000003030000090
:1013dc00313000003131000031310000313000007b
:1013ec003030000030300000303000003031000070
:1013fc00313100003130000031310000313000005b
:10140c00313100003030000030300000303100004d
:10141c00303000003131000031310000313000003b
:10142c00303000003030000030300000303100002f
:10143c003131000031300000313100003131000019
:10144c00313100003030000030300000303000000e
:10145c0030300000313100003131000031300000fb
:10146c0030300000303000003030000030310000ef
:10147c0031310000313000003131000031300000da
:10148c0030300000313000003030000030310000ce
:10149c0031310000303100003131000031300000ba
:1014ac0030300000303000003030000030310000af
:1014bc003131000031300000313100003131000099
:1014cc00303000003130000030300000303000008f
:1014dc00313100003031000031310000313000007a
:1014ec00303000003030000030300000303100006f
:1014fc00313100003130000031310000313000005a
:10150c00313000003130000030300000303100004c
:10151c00303100003031000031310000313000003a
:10152c00303000003030000030300000303100002e
:10153c003131000031300000313100003131000018
:10154c00313000003130000030300000303000000d
:10155c0030310000303100003131000031300000fa
:10156c0030300000303000003030000030310000ee
:10157c0031310000313000003131000031300000d9
:10158c0030310000313000003030000030310000cc
:10159c0031300000303100003131000031300000ba
:1015ac0030300000303000003030000030310000ae
:1015bc003131000031300000313100003131000098
:1015cc00303100003130000030300000303000008d
:1015dc00313000003031000031310000313000007a
:1015ec00303000003030000030300000303100006e
:1015fc003131000031300000313100003130000059
:10160c00313100003130000030300000303100004a
:10161c00303000003031000031310000313000003a
:10162c00303000003030000030300000303100002d
:10163c003131000031300000313100003131000017
:10164c00313100003130000030300000303000000b
:10165c0030300000303100003131000031300000fa
:10166c0030300000303000003030000030310000ed
:10167c0031310000313000003131000031300000d8
:10168c0030300000303100003030000030310000cc
:10169c0031310000313000003131000031300000b8
:1016ac0030300000303000003030000030310000ad
:1016bc003131000031300000313100003131000097
:1016cc00303000003031000030300000303000008d
:1016dc003131000031300000313100003130000078
:1016ec00303000003030000030300000303100006d
:1016fc003131000031300000313100003130000058
:10170c00313000003031000030300000303100004a
:10171c003031000031300000313100003130000038
:10172c00303000003030000030300000303100002c
:10173c003131000031300000313100003131000016
:10174c00313000003031000030300000303000000b
:10175c0030310000313000003131000031300000f8
:10176c0030300000303000003030000030310000ec
:10177c0031310000313000003131000031300000d7
:10178c0030310000303100003030000030310000ca
:10179c0031300000313000003131000031300000b8
:1017ac0030300000303000003030000030310000ac
:1017bc003131000031300000313100003131000096
:1017cc00303100003031000030300000303000008b
:1017dc003130000031300000313100003130000078
:1017ec00303000003030000030300000303100006c
:1017fc003131000031300000313100003130000057
:10180c003131000030310000303000003031000048
:10181c003030000031300000313100003130000038
:10182c00303000003030000030300000303100002b
:10183c003131000031300000313100003131000015
:10184c003131000030310000303000003030000009
:10185c0030300000313000003131000031300000f8
:10186c0030300000303000003030000030310000eb
:10187c0031310000313000003131000031300000d6
:10188c0030300000313100003030000030310000c9
:10189c0031310000303000003131000031300000b7
:1018ac0030300000303000003030000030310000ab
:1018bc003131000031300000313100003131000095
:1018cc00303000003131000030300000303000008a
:1018dc003131000030300000313100003130000077
:1018ec00303000003030000030300000303100006b
:1018fc003131000031300000313100003130000056
:10190c003130000031310000303000003031000047
:10191c003031000030300000313100003130000037
:10192c00303000003030000030300000303100002a
:10193c003131000031300000313100003131000014
:10194c003130000031310000303000003030000008
:10195c003031000030300000313100003100000027
:10196c00686500006c6c00006f2c000000770000b4
:0c197c006f7200006c640000210000008d
:020000040000fa
:101988000000fa0000fe2f00001688000001200069
:1019980020168800218c2000400020009a030700b0
:1019a800401f2000ac0007000421ef002108800040
:1019b800f0fc2f00008060000040a0002008880094
:1019c800f0e12400100888000021ef0021058000c4
:1019d800f0ff2800808060000000250001007000f2
:1019e800200588009460a8008460a90005e1a8008b
:1019f8000080fa00000006000c00fa0068014700a9
:101a0800000978006a00470001087800f10f2000fb
:101a180066004700010878008000eb00640047007a
:101a2800010878000000eb00000f78003d00370047
:101a3800710020000e80e8000108780034003700ab
:101a48001e00780000004000e80047009100780080
:101a580000804000900078000e80e80010007800b8
:101a68000088de000000e000060032006600470043
:101a7800100078000000e000020032001000200092
:101a8800010037000000eb00e10f50000e003a00a3
:101a9800640047001000780000004000ea0047009a
:101aa80091007800008040001100200001087800b3
:101ab80064004700100078008000e80064004700d8
:101ac800010878000d003700640047001000780016
:101ad80000004000ea0047009100780000804000c4
:101ae8008000eb00010878006400470010007800cf
:101af8008000e80064004700010878000e80e800d4
:101b0800100078008000e9000e80e80001087800e5
:101b18000e80e800100078000000e000c8ff3d00db
:101b28001e0fe8001e007800fa0f5000c0ff3400b6
:101b38000080fa00000006000400fa008e80e80029
:101b4800800878000000eb00000f78000c003700d8
:101b58001e007800000040008e80e80091007800a8
:101b68000080400010007800e10f500002003a00a9
:101b7800360b0700010037002d0b07001e0fe80089
:101b8800702820009e007800808f5000f0ff3400fd
:101b98000080fa00000006000400fa008e80e800c9
:101ba800800878000000eb00000f78000c00370078
:101bb8001e007800000040008e80e8009100780048
:101bc8000080400010007800e10f500002003a0049
:101bd8002d0b070001003700230b07001e0fe8003c
:101be800702820009e007800808f5000f0ff34009d
:101bf8000080fa00000006000400fa008e80e80069
:101c0800800878000000eb00000f78000c00370017
:101c18001e007800000040008e80e80091007800e7
:101c28000080400010007800e10f500002003a00e8
:101c3800250b0700010037001b0b07001e0fe800eb
:101c4800702820009e007800808f5000f0ff34003c
:101c58000080fa00000006000400fa008e80e80008
:101c6800800878000000eb00000f78000000eb000f
:101c7800000f7800020037002b0b07001e0fe8004a
:101c88000e80e800100078009e007800808f5000d9
:101c9800f9ff35000080fa00000006000400fa0091
:101ca8008e80e800800878000e80e8001000780038
:101cb8006101b9000080eb008080eb000200400069
:101cc800838048005201200003002000820f50004a
:101cd800838f5800c7023e000060010015003700de
:101ce800c6023700c5023700200037004b00370016
:101cf80076003700a1003700ae003700d900370062
:101d080004013700bd0237002e01370059013700a2
:101d180084013700b9023700ae013700d901370016
:101d280004023700b50237002e0237005902370087
:101d3800840237000000eb00000f7800070037002e
:101d48001e00780080004000c0882000008040000d
:101d58008000eb00010878001e0fe8001e007800e4
:101d6800fa0f5000f6ff3400a50237000000eb0020
:101d7800000f7800250037009e0078003000200012
:101d880000017800110009008200d8008000fd00e1
:101d98000000e00007003a001e00780080004000c4
:101da800c0882000008040008000eb000108780017
:101db800150037009e0078003000200000017800f0
:101dc800110009008200d8008000fd00e10f5000da
:101dd80007003a001e00780080004000c0882000fc
:101de80000804000f10f200001087800060037004d
:101df8001e00780080004000c0882000008040005d
:101e08008000eb00010878001e0fe8001e00780033
:101e1800fa0f5000d8ff3400790237000000eb00b9
:101e2800000f7800250037009e0078003000200061
:101e380000017800110009008200d8008000fd0030
:101e48000000e00007003a001e0078008000400013
:101e5800c088200000804000f10f200001087800b1
:101e6800150037009e00780030002000000178003f
:101e7800110009008200d8008000fd00e10f500029
:101e880007003a001e00780080004000c08820004b
:101e9800008040008000eb00010878000600370051
:101ea8001e00780080004000c088200000804000ac
:101eb8008000eb00010878001e0fe8001e00780083
:101ec800fa0f5000d8ff34004d0237000000eb0035
:101ed800000f7800250037009e00780030002000b1
:101ee80000017800110009008200d8008000fd0080
:101ef8000000e00007003a001e0078008000400063
:101f0800c0882000008040008000eb0001087800b5
:101f1800150037009e00780030002000000178008e
:101f2800110009008200d8008000fd00e10f500078
:101f380007003a001e00780080004000c08820009a
:101f4800008040008000eb000108780006003700a0
:101f58001e00780080004000c088200000804000fb
:101f6800f10f2000010878001e0fe8001e0078001d
:101f7800fa0f5000d8ff3400210237000000eb00b0
:101f8800000f7800070037001e007800800040002e
:101f9800c088200000804000f10f20000108780070
:101fa8001e0fe8001e007800fa0f5000f6ff3400fc
:101fb800130237000000eb00000f780025003700ff
:101fc8009e00780030002000000178001100090010
:101fd8008200d8008000fd000000e00007003a0001
:101fe8001e00780080004000c0882000008040006b
:101ff800f100200001087800150037009e007800e5
:102008003000200000017800110009008200d8008b
:102018008000fd00e10f500007003a001e00780024
:1020280080004000c088200000804000f10f2000a0
:1020380001087800060037001e0078008000400084
:10204800c0882000008040008000eb000108780074
:102058001e0fe8001e007800fa0f5000d8ff340069
:10206800e70137000000eb00000f7800250037007b
:102078009e0078003000200000017800110009005f
:102088008200d8008000fd000000e00007003a0050
:102098001e00780080004000c088200000804000ba
:1020a800f10f200001087800150037009e00780025
:1020b8003000200000017800110009008200d800db
:1020c8008000fd00e10f500007003a001e00780074
:1020d80080004000c0882000008040008000eb00a5
:1020e80001087800060037001e00780080004000d4
:1020f800c0882000008040004101200001087800cd
:102108001e0fe8001e007800fa0f5000d8ff3400b8
:10211800bb0137000000eb00000f780025003700f6
:102128009e007800300020000001780011000900ae
:102138008200d8008000fd000000e00007003a009f
:102148001e00780080004000c08820000080400009
:102158000105200001087800150037009e0078006e
:102168003000200000017800110009008200d8002a
:102178008000fd00e10f500007003a001e007800c3
:1021880080004000c0882000008040008000eb00f4
:1021980001087800060037001e0078008000400023
:1021a800c088200000804000f10f2000010878005e
:1021b8001e0fe8001e007800fa0f5000d8ff340008
:1021c8008f0137000000eb00000f78002500370072
:1021d8009e007800300020000001780011000900fe
:1021e8008200d8008000fd000000e00007003a00ef
:1021f8001e00780080004000c08820000080400059
:10220800e101200001087800150037009e007800e1
:102218003000200000017800110009008200d80079
:102228008000fd00e10f500007003a001e00780012
:1022380080004000c088200000804000f10f20008e
:1022480001087800060037001e0078008000400072
:10225800c0882000008040008000eb000108780062
:102268001e0fe8001e007800fa0f5000d8ff340057
:10227800630137000000eb00000f780025003700ed
:102288009e0078003000200000017800110009004d
:102298008200d8008000fd000000e00007003a003e
:1022a8001e00780080004000c088200000804000a8
:1022b800f10f200001087800150037009e00780013
:1022c8003000200000017800110009008200d800c9
:1022d8008000fd00e10f500007003a001e00780062
:1022e80080004000c0882000008040008000eb0093
:1022f80001087800060037001e00780080004000c2
:10230800c088200000804000f10f200001087800fc
:102318001e0fe8001e007800fa0f5000d8ff3400a6
:10232800370137000000eb00000f78002500370068
:102338009e0078003000200000017800110009009c
:102348008200d8008000fd000000e00007003a008d
:102358001e00780080004000c088200000804000f7
:102368008000eb0001087800150037009e00780017
:102378003000200000017800110009008200d80018
:102388008000fd00e10f500007003a001e007800b1
:1023980080004000c088200000804000f107200035
:1023a80001087800060037001e0078008000400011
:1023b800c088200000804000f10f2000010878004c
:1023c8001e0fe8001e007800fa0f5000d8ff3400f6
:1023d8000b0137000000eb00000f780025003700e4
:1023e8009e007800300020000001780011000900ec
:1023f8008200d8008000fd000000e00007003a00dd
:102408001e00780080004000c08820000080400046
:102418002103200001087800150037009e0078008d
:102428003000200000017800110009008200d80067
:102438008000fd00e10f500007003a001e00780000
:1024480080004000c088200000804000f10f20007c
:1024580001087800060037001e0078008000400060
:10246800c0882000008040008000eb000108780050
:102478001e0fe8001e007800fa0f5000d8ff340045
:10248800df0037000000eb00000f78002500370060
:102498009e0078003000200000017800110009003b
:1024a8008200d8008000fd000000e00007003a002c
:1024b8001e00780080004000c08820000080400096
:1024c8008000eb0001087800150037009e007800b6
:1024d8003000200000017800110009008200d800b7
:1024e8008000fd00e10f500007003a001e00780050
:1024f80080004000c0882000008040008000eb0081
:1025080001087800060037001e00780080004000af
:10251800c088200000804000b10420000108780035
:102528001e0fe8001e007800fa0f5000d8ff340094
:10253800b30037000000eb00000f780025003700db
:102548009e0078003000200000017800110009008a
:102558008200d8008000fd000000e00007003a007b
:102568001e00780080004000c088200000804000e5
:102578008000eb0001087800150037009e00780005
:102588003000200000017800110009008200d80006
:102598008000fd00e10f500007003a001e0078009f
:1025a80080004000c088200000804000f10f20001b
:1025b80001087800060037001e00780080004000ff
:1025c800c088200000804000f10f2000010878003a
:1025d8001e0fe8001e007800fa0f5000d8ff3400e4
:1025e800870037000000eb00000f78002500370057
:1025f8009e007800300020000001780011000900da
:102608008200d8008000fd000000e00007003a00ca
:102618001e00780080004000c08820000080400034
:10262800f10f200001087800150037009e0078009f
:102638003000200000017800110009008200d80055
:102648008000fd00e10f500007003a001e007800ee
:1026580080004000c088200000804000f10f20006a
:1026680001087800060037001e007800800040004e
:10267800c0882000008040008000eb00010878003e
:102688001e0fe8001e007800fa0f5000d8ff340033
:102698005b0037000000eb00000f780025003700d2
:1026a8009e00780030002000000178001100090029
:1026b8008200d8008000fd000000e00007003a001a
:1026c8001e00780080004000c08820000080400084
:1026d8008000eb0001087800150037009e007800a4
:1026e8003000200000017800110009008200d800a5
:1026f8008000fd00e10f500007003a001e0078003e
:1027080080004000c0882000008040008000eb006e
:1027180001087800060037001e007800800040009d
:10272800c088200000804000f100200001087800e7
:102738001e0fe8001e007800fa0f5000d8ff340082
:102748002f0037000000eb00000f7800250037004d
:102758009e00780030002000000178001100090078
:102768008200d8008000fd000000e00007003a0069
:102778001e00780080004000c088200000804000d3
:102788008000eb0001087800150037009e007800f3
:102798003000200000017800110009008200d800f4
:1027a8008000fd00e10f500007003a001e0078008d
:1027b80080004000c088200000804000f10f200009
:1027c80001087800060037001e00780080004000ed
:1027d800c088200000804000f10720000108780030
:1027e8001e0fe8001e007800fa0f5000d8ff3400d2
:1027f800030037000000000001003700000000005f
:102808000080fa00000006000400fa00000f7800bb
:102818000e80e80001087800620320000e80e800be
:1028280090007800a0cf2000bff9070062032000c5
:102838000e80e8009000780000d32000baf9070065
:10284800620320000e80e8009000780060d6200027
:10285800b5f907000e80e80090007800208c200071
:10286800808f500005003200620320000e80e800cf
:1028780090007800c0d92000abf907009e007800ce
:10288800814288001e007800e10f500008003a00dd
:1028980021dd2000a0cf200057fc0700c422ef0054
:1028a8001e08070020dd2000a3fc07002a003700cf
:1028b8001e007800e20f500008003a00212e210087
:1028c80000d320004cfc0700c422ef0013080700c7
:1028d800202e2100b0fc07001f0037001e007800e2
:1028e800e30f500008003a00217f210060d6200045
:1028f80041fc0700c422ef0008080700207f2100e0
:10290800bdfc0700140037001e007800e40f5000db
:1029180011003a0021dd2000a0cf200036fc07007e
:10292800212e210000d3200033fc0700217f210045
:1029380060d6200030fc0700c422ef00f70707002c
:1029480020dd20007cfc0700202e210092fc0700df
:10295800207f2100a8fc07000080fa000000060084
:102968000200fa00000f78001e007800cf80de0019
:10297800d200200003002000820f5000838f5800ef
:1029880039003e00006001000d0037000f003700dd
:102998001100370013003700150037001700370003
:1029a800190037001b0037001d0037001f003700d3
:1029b80021003700230037002500370027003700a3
:1029c80040002000b5fc07002800370080002000e8
:1029d800b2fc070025003700c0002000affc07004c
:1029e8002200370000012000acfc07001f00370060
:1029f80040012000a9fc07001c00370050002000ff
:102a0800a6fc07001900370090002000a3fc07006f
:102a180016003700d0002000a0fc07001300370084
:102a2800a00020009dfc0700100037006000200077
:102a38009afc07000d0037001001200097fc0700e2
:102a48000a003700e000200094fc07000700370068
:102a58002001200091fc07000400370060012000dd
:102a68008efc070001003700000000008042800053
:102a7800c188200064ff07000080fa0000000600fb
:102a88000400fa006000200084fc0700a000200079
:102a9800000f78001e0037009e00780030002000ec
:102aa80000017800110009008200d8008000fd00b4
:102ab8000000e00015003a008000eb000e80e800fe
:102ac800010878000c0037000e80e800100078003c
:102ad80080004000c088200000804000f10f2000e6
:102ae800010878000e80e800100078008000e800f7
:102af8000e80e800010878000e80e80010007800d9
:102b0800e50f5000f0ff3400040037001e0fe80006
:102b18001e007800ef0f5000dfff34006203200032
:102b2800c1882000808f2000fff8070040002000a7
:102b38005afc0700a0002000000f78001e00370094
:102b48009e00780030002000000178001100090084
:102b58008200d8008000fd000000e00015003a0067
:102b68008000eb000e80e800010878000c003700b8
:102b78000e80e8001000780080004000c088200027
:102b880000804000f10f2000010878000e80e80066
:102b9800100078008000e8000e80e8000108780046
:102ba8000e80e80010007800e50f5000f0ff3400b8
:102bb800040037001e0fe8001e007800ef0f5000d9
:102bc800dfff340062032000c1882000e09220006b
:102bd800d5f807000080fa00000006000200fa009d
:102be800000f78001e007800e30f50001e0032002e
:102bf800e30f500007003c00e10f500012003200c4
:102c0800e10f500014003c000000e0000a00320010
:102c180029003700e50f50001b003200e50f500077
:102c280015003500e60f50001b003200e70f50007a
:102c38001d0032002000370080428000818f200074
:102c4800f1fe07001c00370080428000218c200024
:102c5800edfe07001800370080428000818f2000b9
:102c6800e9fe07001400370080428000218c200014
:102c7800e5fe07001000370080428000e192200046
:102c8800e1fe07000c00370080428000218c200004
:102c9800ddfe07000800370080428000e192200036
:102ca800d9fe07000400370080428000218c2000f4
:102cb800d5fe0700000000000080fa0000000600b2
:102cc8000200fa000000eb00000f78006203200009
:102cd800c1d9200060a0200093f807000000eb0095
:102ce800000f78001f0037001e00780080004000a9
:102cf80060a02000008040001000780012f02f0033
:102d0800000141001e0078008000400060a0200003
:102d180000804000020878001e0078008000400013
:102d280060a0200000804000100078000000e00053
:102d38000b003d001e0078008000400060a02000cd
:102d480000804000100078000001ea001e007800b2
:102d58008000400060a02000008040000208780049
:102d68001e0fe8001e007800fa0f5000deff340046
:102d78000080fa00000006000000fa00804280008f
:102d880061a02000a0fe07000080fa0000000600f5
:102d98000200fa000000eb00000f78006203200038
:102da800c1d92000a09920005ff807000000eb00bf
:102db800000f78001f0037001e00780080004000d8
:102dc800a0992000008040001000780012f02f0029
:102dd800000141001e00780080004000a0992000fa
:102de80000804000020878001e0078008000400043
:102df800a099200000804000100078000000e0004a
:102e08000b003d001e00780080004000a0992000c3
:102e180000804000100078000001ea001e007800e1
:102e280080004000a099200000804000020878003f
:102e38001e0fe8001e007800fa0f5000deff340075
:102e480062032000c1d92000009d200036f8070049
:102e58000080fa00000006000200fa00000f780067
:102e68001e007800e10f50001e003200e10f5000f4
:102e780003003c000000e000060032005500370067
:102e8800e20f50002b003200e30f50003d003200eb
:102e98005000370062032000019d2000409620006a
:102ea80021f80700004d8000504b8800104d80002d
:102eb800604b8800204d8000704b8800504e800089
:102ec800a04c8800604e8000b04c8800704e800096
:102ed800c04c880080428000419620004afe0700ce
:102ee8003c00370062032000019d2000409620002e
:102ef8000df80700604d8000b04b8800704d8000d1
:102f0800c04b8800804d8000d04b8800d04c80009a
:102f1800204b8800e04c8000304b8800f04c80004b
:102f2800404b8800804280004196200036fe070012
:102f38002800370062032000019d200040962000f1
:102f4800f9f70700c04d8000104c8800d04d800074
:102f5800204c8800e04d8000304c8800304d8000c7
:102f6800804b8800404d8000904b8800504d800079
:102f7800a04b8800804280004196200022fe070076
:102f88001400370062032000019d200040962000b5
:102f9800e5f70700204e8000704c8800304e800016
:102fa800804c8800404e8000904c8800f04d800096
:102fb800404c8800004e8000504c8800104e800025
:102fc800604c880080428000419620000efe070079
:102fd800000000000080fa00000006000200fa006d
:102fe800000f78001e0078000000e00003003200a7
:102ff800e10f5000050032000800370080428000d1
:10300800c1d9200000fe070004003700804280007c
:10301800218c2000fcfd0700000000000080fa0061
:10302800000006000600fa00e40047008008780067
:103038006400470010007800e10f500040003200a3
:10304800e20f50007a0032000000e000b4003a00bd
:1030580010002000000f7800170037008000eb00f8
:103068000e80e800010878000b0037000e80e800a9
:10307800100078008000400020d02100008040002f
:103088001e0878000e80e80010007800e300400079
:103098000e80e800010878000e80e8001000780033
:1030a800f90f5000f1ff34008042800021d0210048
:1030b800d5fd07001e8fe800e00f20009e00780075
:1030c800808f5000e5ff3400f00f2000000f7800db
:1030d800170037008000eb000e80e8000108780038
:1030e8000b0037000e80e8001000780080004000d8
:1030f80020d02100008040001e0878000e80e800e3
:1031080010007800e30040000e80e8000108780015
:103118000e80e80010007800f90f5000f1ff34002d
:103128008042800021d02100b7fd07001e8fe900f2
:103138001e0078000000e000e6ff3c007900370040
:1031480010002000000f7800170037001100200041
:103158000e80e800010878000b0037000e80e800b8
:10316800100078008000400020d02100008040003e
:103178001e0878000e80e80010007800e300400088
:103188000e80e800010878000e80e8001000780042
:10319800fa0f5000f1ff34008042800021d0210056
:1031a80099fd07001e8fe800e00f20009e007800c0
:1031b800808f5000e5ff3400f00f2000000f7800ea
:1031c80017003700110020000e80e8000108780081
:1031d8000b0037000e80e8001000780080004000e7
:1031e80020d02100008040001e0878000e80e800f2
:1031f80010007800e30040000e80e8000108780025
:103208000e80e80010007800fa0f5000f1ff34003b
:103218008042800021d021007bfd07001e8fe9003d
:103228001e007800e10f5000e6ff3c003d0037002b
:1032380010002000000f7800170037002100200040
:103248000e80e800010878000b0037000e80e800c7
:10325800100078008000400020d02100008040004d
:103268001e0878000e80e80010007800e300400097
:103278000e80e800010878000e80e8001000780051
:10328800fb0f5000f1ff34008042800021d0210064
:103298005dfd07001e8fe800e00f20009e0078000b
:1032a800808f5000e5ff3400f00f2000000f7800f9
:1032b80017003700210020000e80e8000108780080
:1032c8000b0037000e80e8001000780080004000f6
:1032d80020d02100008040001e0878000e80e80001
:1032e80010007800e30040000e80e8000108780034
:1032f8000e80e80010007800fb0f5000f1ff34004a
:103308008042800021d021003ffd07001e8fe90088
:103318001e007800e10f5000e6ff3c000100370076
:10332800000000000080fa00000006000200fa0019
:103338000000eb00000f780062032000c1d92000d4
:10334800c0a32000f8f6070062032000c1d92000be
:1033580020a72000f4f6070062032000c1d920004e
:1033680080aa2000f0f6070062032000c1d92000df
:10337800e0ad2000ecf6070062032000c1d9200070
:1033880040b12000e8f607000000eb00000f7800cd
:10339800580037001e007800e20f50000300340088
:1033a8001e007800f80f5000190034001e00780045
:1033b80080004000c0a32000008040008000eb0097
:1033c800010878001e0078008000400020a7200037
:1033d800008040008000eb00010878001e007800a3
:1033e8008000400080aa2000008040008000eb00a0
:1033f800010878001e00780080004000e0ad200041
:10340800008040008000eb00010878003800370099
:103418001e007800e50f5000030034001e007800fd
:10342800f50f5000130034001e00780080004000a3
:10343800c0a32000008040008000eb000108780055
:103448001e0078008000400020a720000080400077
:103458008000eb00010878001e0078008000400022
:1034680080aa2000008040008000eb00010878005e
:103478001f0037001e007800e80f500003003400da
:103488001e007800f20f50000d0034001e00780076
:1034980080004000c0a32000008040008000eb00b6
:1034a800010878001e0078008000400020a7200056
:1034b800008040008000eb00010878000c00370015
:1034c8001e007800eb0f5000030034001e00780047
:1034d800ee0f5000060034001e0078008000400007
:1034e800c0a32000008040008000eb0001087800a5
:1034f8001e0fe8001e007800fa0f5000a5ff3400e8
:103508000080fa00000006000200fa00000f7800b0
:103518001e007800e30f50001e003200e30f500039
:1035280007003c00e10f500012003200e10f50008c
:1035380014003c000000e0000a00320029003700b7
:10354800e50f50001b003200e50f50001500350054
:10355800e60f50001b003200e70f50001d0032003c
:103568002000370080428000c1a32000a6fc07008d
:103578001c0037008042800021a72000a2fc070021
:10358800180037008042800081aa20009efc0700b6
:103598001400370080428000e1ad20009afc07004b
:1035a800100037008042800041b1200096fc0700df
:1035b8000c00370080428000e1ad200092fc07003b
:1035c800080037008042800081aa20008efc070096
:1035d800040037008042800021a720008afc0700f1
:1035e800000000000080fa00000006000200fa0057
:1035f8000000eb00000f780062032000c1d9200012
:10360800a0b4200048f6070062032000c1d92000ba
:1036180000b8200044f6070062032000c1d920004a
:1036280060bb200040f6070062032000c1d92000db
:10363800c0be20003cf6070062032000c1d920006c
:1036480020c2200038f6070062032000c1d92000fc
:1036580080c5200034f6070062032000c1d920008d
:10366800e0c8200030f6070062032000c1d920001e
:1036780040cc20002cf60700a0012000000f7800a5
:10368800710137001e007800f70f50002b0034003e
:103698001e00780080004000a0b420000080400098
:1036a8008000eb00010878001e00780080004000d0
:1036b80000b82000008040008000eb00010878007e
:1036c8001e0078008000400060bb200000804000a1
:1036d8008000eb00010878001e00780080004000a0
:1036e800c0be2000008040008000eb000108780088
:1036f8001e0078008000400020c2200000804000aa
:103708008000eb00010878001e007800800040006f
:1037180080c52000008040008000eb000108780090
:103728001e00780080004000e0c8200000804000b3
:103738008000eb0001087800420137001e00780085
:10374800f40f5000250034001e007800800040006f
:10375800a0b42000008040008000eb000108780041
:103768001e0078008000400000b820000080400063
:103778008000eb00010878001e00780080004000ff
:1037880060bb2000008040008000eb00010878004a
:103798001e00780080004000c0be2000008040006d
:1037a8008000eb00010878001e00780080004000cf
:1037b80020c22000008040008000eb000108780053
:1037c8001e0078008000400080c520000080400076
:1037d8008000eb00010878001a0137001e0078000d
:1037e800f10f5000250034001e00780080004000d2
:1037f800a0b42000008040008000eb0001087800a1
:103808001e0078008000400000b8200000804000c2
:103818008000eb00010878001e007800800040005e
:1038280060bb2000008040008000eb0001087800a9
:103838001e00780080004000c0be200000804000cc
:103848008000eb00010878001e007800800040002e
:1038580020c22000008040008000eb0001087800b2
:103868001e0078008000400040cc2000008040000e
:103878008000eb0001087800f20037001e00780095
:10388800ee0f5000250034001e0078008000400034
:10389800a0b42000008040008000eb000108780000
:1038a8001e0078008000400000b820000080400022
:1038b8008000eb00010878001e00780080004000be
:1038c80060bb2000008040008000eb000108780009
:1038d8001e00780080004000c0be2000008040002c
:1038e8008000eb00010878001e007800800040008e
:1038f800e0c82000008040008000eb00010878004c
:103908001e0078008000400040cc2000008040006d
:103918008000eb0001087800ca0037001e0078001c
:10392800eb0f5000250034001e0078008000400096
:10393800a0b42000008040008000eb00010878005f
:103948001e0078008000400000b820000080400081
:103958008000eb00010878001e007800800040001d
:1039680060bb2000008040008000eb000108780068
:103978001e0078008000400080c5200000804000c4
:103988008000eb00010878001e00780080004000ed
:10399800e0c82000008040008000eb0001087800ab
:1039a8001e0078008000400040cc200000804000cd
:1039b8008000eb0001087800a20037001e007800a4
:1039c800e80f5000250034001e00780080004000f9
:1039d800a0b42000008040008000eb0001087800bf
:1039e8001e0078008000400000b8200000804000e1
:1039f8008000eb00010878001e007800800040007d
:103a080020c22000008040008000eb000108780000
:103a18001e0078008000400080c520000080400023
:103a28008000eb00010878001e007800800040004c
:103a3800e0c82000008040008000eb00010878000a
:103a48001e0078008000400040cc2000008040002c
:103a58008000eb00010878007a0037001e0078002b
:103a6800e50f5000250034001e007800800040005b
:103a7800a0b42000008040008000eb00010878001e
:103a88001e00780080004000c0be2000008040007a
:103a98008000eb00010878001e00780080004000dc
:103aa80020c22000008040008000eb000108780060
:103ab8001e0078008000400080c520000080400083
:103ac8008000eb00010878001e00780080004000ac
:103ad800e0c82000008040008000eb00010878006a
:103ae8001e0078008000400040cc2000008040008c
:103af8008000eb0001087800520037001e007800b3
:103b0800e20f5000250034001e00780080004000bd
:103b180060bb2000008040008000eb0001087800b6
:103b28001e00780080004000c0be200000804000d9
:103b38008000eb00010878001e007800800040003b
:103b480020c22000008040008000eb0001087800bf
:103b58001e0078008000400080c5200000804000e2
:103b68008000eb00010878001e007800800040000b
:103b7800e0c82000008040008000eb0001087800c9
:103b88001e0078008000400040cc200000804000eb
:103b98008000eb00010878002a0037001e0078003a
:103ba8008000400000b82000008040008000eb004a
:103bb800010878001e0078008000400060bb2000eb
:103bc800008040008000eb00010878001e007800ab
:103bd80080004000c0be2000008040008000eb0054
:103be800010878001e0078008000400020c22000f4
:103bf800008040008000eb00010878001e0078007b
:103c08008000400080c52000008040008000eb005c
:103c1800010878001e00780080004000e0c82000fd
:103c2800008040008000eb00010878001e0078004a
:103c38008000400040cc2000008040008000eb0065
:103c4800010878001e0fe9001e0078000000e0005f
:103c58008cfe3d000080fa00000006000200fa0019
:103c6800000f78001e007800cf80de00d200200010
:103c780003002000820f5000838f580047003e0049
:103c8800006001000d0037001000370013003700f6
:103c980016003700190037001c0037001f003700d6
:103ca8002200370025003700280037002b00370096
:103cb8002e00370031003700340037008042800082
:103cc800a1b42000d0fa07003500370080428000f8
:103cd80001b82000ccfa070031003700804280008c
:103ce80061bb2000c8fa07002d0037008042800021
:103cf800c1be2000c4fa07002900370080428000b6
:103d080021c22000c0fa0700250037008042800049
:103d180081c52000bcfa07002100370080428000de
:103d2800e1c82000b8fa07001d0037008042800073
:103d380041cc2000b4fa0700190037008042800007
:103d4800e1c82000b0fa0700150037008042800063
:103d580081c52000acfa07001100370080428000be
:103d680021c22000a8fa07000d0037008042800019
:103d7800c1be2000a4fa0700090037008042800075
:103d880061bb2000a0fa07000500370080428000d0
:103d980001b820009cfa070001003700000000006d
:103da8000080fa00000006000200fa000000eb00a4
:103db800000f7800a00f2000350207001e007800d1
:103dc80000407800614060000080fb0061006000f6
:103dd8004700dd00611680000170a100010070003d
:103de800601688001e00780000407800614060007e
:103df8000080fb00610060004600dd006116800065
:103e08000160a10001007000601688001e007800a3
:103e18000000e000030032000000eb00000f780013
:103e2800e4ff370010002000000f7800e1ff3700a2
:103e38000000fa00c902a8006ac0a800113a800070
:103e4800f00b200000816000600420007105200054
:103e580023742000804978008149780082497800dd
:103e68007134800000fe2f00008060000030a00048
:103e780070348800103a8000000178000260a000c9
:103e88006004200071052000237420008049780018
:103e980081497800824978001021ef00810880006c
:103ea800f0fc2f00008060000050a000800888000f
:103eb8000080eb00600888000621ef004221ef0037
:103ec80042e1a800110a8000f0f92f00008060008c
:103ed800100a8800110a800080ff2f00008060000f
:103ee8000010a000100a880021058000f0f82f00bb
:103ef8008080600000062000010070002005880016
:103f0800310580000000270001007000300588009e
:103f18008420a9009420a80094e0a80084e0a900c7
:103f280011e1a8000080fa00000006000000fa0075
:103f3800c8e2a900c8c2a9000080fa000000060073
:103f48000800fa0010002000a80107008040eb00dc
:103f58000040eb00070207000000eb00000f7800ac
:103f68000000eb00000f78000500370080d3210027
:103f78001e00400010407800d50107001e0fe80021
:103f88001e007800e70f5000f8ff34008040eb0077
:103f980010c0b300f70107008000eb000e80e800b6
:103fa800010878000c0037000e80e8001000780047
:103fb8006800400081d32100008040001040780054
:103fc800c30107000e80e800100078008000e800b8
:103fd8000e80e800010878000e80e80010007800e4
:103fe800e70f5000f0ff3400803e2000a8010700d2
:103ff8008040eb000040eb00de0107008000eb0092
:1040080064004700010878000c003700640047008e
:10401800100078007000400081d32100008040002b
:1040280010407800aa0107006400470010007800db
:104038008000e80064004700010878006400470039
:1040480010007800e70f5000f0ff34008040eb00cc
:1040580010c0b300c70107008000eb0066004700ee
:10406800010878000c00370066004700100078004f
:104078007800400081d32100008040001040780083
:104088009301070066004700100078008000e800f0
:1040980066004700010878006600470010007800b5
:1040a800e70f5000f0ff3400803e20007801070041
:1040b800100020004d0107000080fa0000000600f3
:1040c8000604fa0010002000480107008040eb00b9
:1040d8000040eb00a7010700e6004700528b2800cc
:1040e800ff030900b25878000000eb00000f7800c9
:1040f8008000eb000e80e800010878002d003700f2
:104108008000eb00640047000108780018003700c1
:104118006400470010007800700040008e80e800be
:1041280091007800c508dd000080400000004700cd
:104138006600400090407800640047001000780056
:104148007000400082d32100000041001040780038
:1041580080cf500001003a001e0fe80064004700bd
:10416800100078008000e80064004700010878002b
:104178006400470010007800ec0f5000e4ff3400a2
:104188001e007800ed0f500003003a000000eb001d
:10419800000f78000b0037000000eb00000f7800dc
:1041a8000e80e800100078008000e8000e80e8002b
:1041b800010878000e80e80010007800ff0f50001a
:1041c800cfff34000e80e80010007800ff0f500089
:1041d80001003c00cce2a8000e80e8001000780046
:1041e800cf80de00f201200003002000820f500083
:1041f800838f58009c003e00006001001f003700bc
:104208002100370023003700250037002900370038
:104218002d0037002f0037003100370033003700fa
:104228003500370037003700390037003d003700c8
:104238003f00370041003700430037004700370090
:10424800490037004b0037004d0037004f0037005a
:10425800510037005300370055003700570037002a
:104268005c00370060003700650037006a003700df
:104278006e0037007200370076003700607d280036
:104288004a0107007b003700c07d2800470107006e
:1042980078003700207e28004401070075003700a9
:1042a800807e28004101070030c7b30052e8b700fc
:1042b80070003700e07e28003c01070010c6b300fc
:1042c80052e8b7006b003700407f2800370107002d
:1042d80068003700a07f2800340107006500370018
:1042e8000080280031010700620037006080280044
:1042f8002e0107005f003700c08028002b0107004f
:104308005c00370020812800280107005900370089
:10431800908128002501070070c6b30052e8b70055
:1043280054003700008228002001070051003700a0
:10433800708228001d0107004e003700e082280027
:104348001a0107004b0037005083280017010700a7
:1043580060c6b30052e8b70046003700c0832800a3
:104368001201070043003700308428000f010700be
:1043780040003700a08428000c0107003d003700ea
:1043880010852800090107003a00370080852800b9
:104398000601070037003700f085280003010700f1
:1043a800340037006086280000010700310037001c
:1043b800d0862800fd0007002e003700408728001f
:1043c800fa000700d9fb070070c7b30052e8b7002e
:1043d80028003700b0872800f400070060c7b30042
:1043e80052e8b7002300370020882800ef000700b4
:1043f80067fa070040c7b30052e8b7001d0037004e
:1044080090882800e900070078fc070090c7b300ef
:1044180052e8b7001700370000892800e3000700ba
:1044280010002000804288001200370070892800a0
:10443800de00070020002000804288000d003700c1
:10444800e0892800d9000700300020008042880059
:1044580008003700508a2800d400070040002000d8
:104468008042880003003700c08a2800cf00070078
:10447800000000000e80e80010007800e10f5000f6
:10448800200032000e80e80010007800ea0f50008b
:1044980004003c000e80e80010007800e30f500094
:1044a80018003c000e80e80010007800ee0f500065
:1044b80004003c000e80e80010007800eb0f50006c
:1044c80010003c000e80e80010007800f20f500049
:1044d80004003c000e80e80010007800ef0f500048
:1044e80008003c000e80e80010007800f60f50002d
:1044f8000c003c000e80e80010007800f30f50001c
:104508000800340010c6b30052e8b7000e80e80077
:1045180010007800e1f5070080428000c188200083
:10452800b9f80700803e200059000700cce2a90036
:10453800100020002d0007000080fa00000006008f
:104548000000fa00d0092000a01088008a40a900c5
:1045580017e2a800c1342200200320000100010056
:10456800a12f22008003200001000100a12f2200ba
:104578009003200001000100a12f2200400120002b
:1045880001000100a12f2200000720000100010006
:10459800a12f22006005200001000100a12f2200a8
:1045a800c006200001000100c1342200800c200058
:1045b80001000100a12f220080032000010001005a
:1045c800a12f2200c000200001000100a12f22001d
:1045d8001000200001000100c1342200100020005a
:1045e800010001000080fa00000006000200fa0045
:1045f800000f78008a40a9001602a80000000000f9
:10460800b0108000610060000000e000fcff3a008c
:104618008a40a900c0072000901088000000000010
:1046280050048000640060000000e000fcff3200dd
:104638008a40a9001222ef00000000005004800008
:10464800640060000000e000fcff32008a40a9001e
:104658001e007800901088000000000050048000c0
:10466800640060000000e000fcff32008a40a900fe
:104678001642a80000000000b0108000640060002e
:104688000000e000fcff3a000080fa00000006008d
:104698000200fa00000f7800020037007e3e090091
:1046a800000000001e00780000f0a7000000ea00eb
:1046b8000000ea004f00de00004078001e0fe9000d
:1046c8000004e000f5ff3a000080fa000000060050
:1046d8000200fa00004f78001602a800000000004f
:1046e800b0108000610060000000e000fcff3a00ac
:1046f8008a40a900c0072000901088000000000030
:1047080050048000640060000000e000fcff3200fc
:104718008a40a900000420009010880000000000d2
:1047280050048000640060000000e000fcff3200dc
:104738008a40a9001e00fb009010880000000000bd
:1047480050048000640060000000e000fcff3200bc
:104758008a40a9001642a80000000000b01080009e
:10476800640060000000e000fcff3a000080fa00ee
:10477800000006000200fa00004f78000e00e80072
:10478800014878001e00fb00c600dd000e00e800ae
:10479800104078000000fb00008040000008b000d6
:1047a80092ff07000080fa00000006000400fa00eb
:1047b800881f78008e80e800800878000000eb00f1
:1047c800000f7800070037009e0078000e80e80090
:1047d800100078000100400010407800bcff07007e
:1047e8001e0fe8001e0478000e80e8001000780014
:1047f800d4f10700800f5400f3ff39004f0478000c
:104808000080fa00000006000000fa00c001200045
:1048180076ff07000080fa00000006000000fa009a
:104828008001200071ff07000080fa0000000600e8
:10483800c422ec000400090000000000c422ef00bc
:10484800090009000000000000000600c422ec0076
:104858000b00090000000000c422ef00020009005c
:10486800000000000000060020002000201688003c
:104878000400090000000000c422ef00090009003c
:10488800000000000000060020002000201688001c
:104898000b00090000000000c422ef00020009001c
:1048a800000000000000060000012000201688001b
:1048b8000400090000000000c422ef0009000900fc
:1048c80000000000000006000001200020168800fb
:1048d8000b00090000000000c422ef0002000900dc
:1048e8000000000000000600c422ec0004000900db
:1048f80000000000c422ef000900090000000000c9
:1049080000000600c422ec000b00090000000000b3
:10491800c422ef0000000000000006001d0309008b
:1049280000000000000006003a3e090000000000f8
:10493800000006000000fa00213a8000f08f2f00e6
:1049480000806000203a8800f0ff29006019880084
:1049580011028000f0f12f00008060001002880032
:104968000080fa00000006000000fa00f1ff0700ce
:1049780003f40700f2fe07008040eb000040eb0064
:104988007cff070060cb280088ff07008040eb0011
:1049980010c0b30077ff0700d0cb280083ff0700c3
:1049a800803e20003aff0700100020000fff07009c
:1049b8001ffd07005dfd0700f1f30700ffff37004b
:020000040000fa
:1049c800381d000020000000000000002c08000036
:1049d800240000000000000054080000020000004d
:1049e800020000000100000056080000e214000068
:1049f80000000000000800002c000000000000007b
:104a080050080000040000000200000004006100db
:084a1800000000000000000096
:020000040000fa
:020000040001f9
:0457f8000ff90000a5
:020000040000fa
:020000040001f9
:0457fc007f3f0000eb
:00000001FF
