:020000040000fa
:080000000002040000000000f2
:020000040000fa
:04000800ca04000026
:020000040000fa
:04000c00ca04000022
:020000040000fa
:04001000ca0400001e
:020000040000fa
:04001400ca0400001a
:020000040000fa
:04001800ca04000016
:020000040000fa
:04001c00ca04000012
:020000040000fa
:04002000ca0400000e
:020000040000fa
:04002400ca0400000a
:020000040000fa
:04002800ca04000006
:020000040000fa
:04002c0018030000b5
:020000040000fa
:04003000ca040000fe
:020000040000fa
:04003400ca040000fa
:020000040000fa
:04003800ca040000f6
:020000040000fa
:04003c00ca040000f2
:020000040000fa
:04004000ca040000ee
:020000040000fa
:04004400d0020000e6
:020000040000fa
:04004800ca040000e6
:020000040000fa
:04004c00ca040000e2
:020000040000fa
:04005000ca040000de
:020000040000fa
:04005400ca040000da
:020000040000fa
:04005800ca040000d6
:020000040000fa
:04005c00ca040000d2
:020000040000fa
:04006000ca040000ce
:020000040000fa
:04006400ca040000ca
:020000040000fa
:04006800ca040000c6
:020000040000fa
:04006c00ca040000c2
:020000040000fa
:04007000ca040000be
:020000040000fa
:04007400ca040000ba
:020000040000fa
:04007800ca040000b6
:020000040000fa
:04007c00ca040000b2
:020000040000fa
:04008000ca040000ae
:020000040000fa
:04008400ca040000aa
:020000040000fa
:04008800ca040000a6
:020000040000fa
:04008c00ca040000a2
:020000040000fa
:04009000ca0400009e
:020000040000fa
:04009400ca0400009a
:020000040000fa
:04009800ca04000096
:020000040000fa
:04009c00ca04000092
:020000040000fa
:0400a000ca0400008e
:020000040000fa
:0400a400ca0400008a
:020000040000fa
:0400a800ca04000086
:020000040000fa
:0400ac00ca04000082
:020000040000fa
:0400b000ca0400007e
:020000040000fa
:0400b400ca0400007a
:020000040000fa
:0400b800ca04000076
:020000040000fa
:0400bc00ca04000072
:020000040000fa
:0400c000ca0400006e
:020000040000fa
:0400c400ca0400006a
:020000040000fa
:0400c800ca04000066
:020000040000fa
:0400cc00ca04000062
:020000040000fa
:0400d000ca0400005e
:020000040000fa
:0400d400ca0400005a
:020000040000fa
:0400d800ca04000056
:020000040000fa
:0400dc00ca04000052
:020000040000fa
:0400e000ca0400004e
:020000040000fa
:0400e400ca0400004a
:020000040000fa
:0400e800ca04000046
:020000040000fa
:0400ec00ca04000042
:020000040000fa
:0400f000ca0400003e
:020000040000fa
:0400f400ca0400003a
:020000040000fa
:0400f800ca04000036
:020000040000fa
:0400fc00ca04000032
:020000040000fa
:04010000ca0400002d
:020000040000fa
:04010400ca04000029
:020000040000fa
:04010800ca04000025
:020000040000fa
:04010c00ca04000021
:020000040000fa
:04011000ca0400001d
:020000040000fa
:04011400ca04000019
:020000040000fa
:04011800ca04000015
:020000040000fa
:04011c00ca04000011
:020000040000fa
:04012000ca0400000d
:020000040000fa
:04012400ca04000009
:020000040000fa
:04012800ca04000005
:020000040000fa
:04012c00ca04000001
:020000040000fa
:04013000ca040000fd
:020000040000fa
:04013400ca040000f9
:020000040000fa
:04013800ca040000f5
:020000040000fa
:04013c00ca040000f1
:020000040000fa
:04014000ca040000ed
:020000040000fa
:04014400ca040000e9
:020000040000fa
:04014800ca040000e5
:020000040000fa
:04020800ca04000024
:020000040000fa
:04020c00ca04000020
:020000040000fa
:04021000ca0400001c
:020000040000fa
:04021400ca04000018
:020000040000fa
:04021800ca04000014
:020000040000fa
:04021c00ca04000010
:020000040000fa
:04022000ca0400000c
:020000040000fa
:04022400ca04000008
:020000040000fa
:04022800ca04000004
:020000040000fa
:04022c0018030000b3
:020000040000fa
:04023000ca040000fc
:020000040000fa
:04023400ca040000f8
:020000040000fa
:04023800ca040000f4
:020000040000fa
:04023c00ca040000f0
:020000040000fa
:04024000ca040000ec
:020000040000fa
:04024400d0020000e4
:020000040000fa
:04024800ca040000e4
:020000040000fa
:04024c00ca040000e0
:020000040000fa
:04025000ca040000dc
:020000040000fa
:04025400ca040000d8
:020000040000fa
:04025800ca040000d4
:020000040000fa
:04025c00ca040000d0
:020000040000fa
:04026000ca040000cc
:020000040000fa
:04026400ca040000c8
:020000040000fa
:04026800ca040000c4
:020000040000fa
:04026c00ca040000c0
:020000040000fa
:04027000ca040000bc
:020000040000fa
:04027400ca040000b8
:020000040000fa
:04027800ca040000b4
:020000040000fa
:04027c00ca040000b0
:020000040000fa
:04028000ca040000ac
:020000040000fa
:04028400ca040000a8
:020000040000fa
:04028800ca040000a4
:020000040000fa
:04028c00ca040000a0
:020000040000fa
:04029000ca0400009c
:020000040000fa
:04029400ca04000098
:020000040000fa
:04029800ca04000094
:020000040000fa
:04029c00ca04000090
:020000040000fa
:0402a000ca0400008c
:020000040000fa
:0402a400ca04000088
:020000040000fa
:0402a800ca04000084
:020000040000fa
:0402ac00ca04000080
:020000040000fa
:0402b000ca0400007c
:020000040000fa
:0402b400ca04000078
:020000040000fa
:0402b800ca04000074
:020000040000fa
:0402bc00ca04000070
:020000040000fa
:0402c000ca0400006c
:020000040000fa
:0402c400ca04000068
:020000040000fa
:0402c800ca04000064
:020000040000fa
:0402cc00ca04000060
:020000040000fa
:0402d000ca0400005c
:020000040000fa
:0402d400ca04000058
:020000040000fa
:0402d800ca04000054
:020000040000fa
:0402dc00ca04000050
:020000040000fa
:0402e000ca0400004c
:020000040000fa
:0402e400ca04000048
:020000040000fa
:0402e800ca04000044
:020000040000fa
:0402ec00ca04000040
:020000040000fa
:0402f000ca0400003c
:020000040000fa
:0402f400ca04000038
:020000040000fa
:0402f800ca04000034
:020000040000fa
:0402fc00ca04000030
:020000040000fa
:04030000ca0400002b
:020000040000fa
:04030400ca04000027
:020000040000fa
:04030800ca04000023
:020000040000fa
:04030c00ca0400001f
:020000040000fa
:04031000ca0400001b
:020000040000fa
:04031400ca04000017
:020000040000fa
:04031800ca04000013
:020000040000fa
:04031c00ca0400000f
:020000040000fa
:04032000ca0400000b
:020000040000fa
:04032400ca04000007
:020000040000fa
:04032800ca04000003
:020000040000fa
:04032c00ca040000ff
:020000040000fa
:04033000ca040000fb
:020000040000fa
:04033400ca040000f7
:020000040000fa
:04033800ca040000f3
:020000040000fa
:04033c00ca040000ef
:020000040000fa
:04034000ca040000eb
:020000040000fa
:04034400ca040000e7
:020000040000fa
:04034800ca040000e3
:020000040000fa
:10040000cfff21000e7f22000e01880000000000b7
:10041000000020000000e000020032000001200087
:1004200020028800140007005c0107000000e000c3
:1004300003003a00a09a21000100200002003700ca
:100440000000200001002000810f70000100320038
:1004500014000700000020000000e000020032004d
:1004600000000200000000006e1e020000000000fc
:100470000040da000000fe004440a900e04e2000e9
:100480000000e0000300320000002000a00188000e
:100490004440a800000006008a1f78008b1f7800e7
:1004a0000000060091018800800478000000eb0045
:1004b0001a003700e284440032a0b4009905ba0063
:1004c000e284440032a0b4009906ba00e2844400f9
:1004d00032a0b4000006eb00476fde00fd07b2005b
:1004e000636ce10003003a00ebff07000000eb0043
:1004f0000a003700606ce10004003a00005deb0088
:100500008b05e900fdff3e00040037006168e10053
:10051000010032000086eb000b00070019c7ba008b
:100520001905ba000e04e00003003a000a00e000da
:10053000e0ff3a0000000600fe07b2009e018800be
:100540008a047800f5ff3700395dba008b05e900b1
:100550000c003200295dba008b05e900080032006a
:100560000c00e00003003a00e284440032a0b40032
:10057000f5ff370019ddba008b05e900faff3a00f4
:100580008904e800e184440032a0b40000000600c1
:10059000000000000000000000000000000000005b
:1005a0003600f800809fbe00829fbe00849fbe0080
:1005b000869fbe003400f80000002000a0018800e3
:1005c0000000fa0084e0a900208020003002be0074
:1005d0002003be0010002000010020006011b800c0
:1005e0000000420081804a0002014b0083814b00e1
:1005f00024802000009abe000292be00904180003c
:100600000000e000020032003228ef00c4040700be
:100610000080fa003400f9004f03be004f02be0014
:100620004f01be004f00be003600f900004006003a
:100630003600f800809fbe00829fbe00849fbe00ef
:10064000869fbe00889fbe008a9fbe003400f800cf
:1006500000002000a00188000000fa008420a9000a
:10066000c0418000e10f500010003a00604180005e
:100670000000e0000d003a000621ef002480200079
:100680006000b8006011b800009abe000292be007f
:10069000a48020006000b8006011b800009abe007d
:1006a0000292be003828ef00b0003700a080200082
:1006b0005001be004000be0024812000009abe0010
:1006c0000292be00600880000000e8006104b800eb
:1006d0006055b800208020005001be004000be00e0
:1006e0000203be000002be000800be000a01be00f8
:1006f000ab0007000203be000002be00000a80003b
:100700008000eb006011b8000000420081804a00c8
:1007100002014b0083814b00a4802000009abe00a0
:100720000292be00a08020003002be002003be0066
:10073000208120005001be004000be000000520099
:1007400081805a0002015b0083815b00a48120004c
:10075000009abe000292be00a08120003002be00be
:100760002003be00900f2000010020006011b8009f
:100770000020e10001a8e10002b0e10003b8e100bf
:100780007a003600c04180000000e0001c003a0002
:10079000604180000000e00019003a00a0812000c4
:1007a0003002be002003be0040ce20000100200029
:1007b0006011b8000020e10001a8e10002b0e100f2
:1007c00003b8e1000e003600a08120003002be0018
:1007d0002003be0090d72000010020006011b80067
:1007e0000020e10001a8e10002b0e10003b8e1004f
:1007f00003003e0010002000604188005b003700cd
:1008000060418000e10f500058003a00a0812000b4
:100810003002be002003be0000272000010020009f
:100820006011b8000020e10001a8e10002b0e10081
:1008300003b8e1004d003e00a08120003002be0060
:100840002003be00a00f2000010020006011b800ae
:100850000020e10001a8e10002b0e10003b8e100de
:1008600011003600a08120003002be002003be002f
:10087000d0152000010020006011b8000020e10028
:1008800001a8e10002b0e10003b8e10006003e006b
:1008900082418000c0fd210001c3b300020040007e
:1008a000014878001b003700a08120003002be0004
:1008b0002003be00401f2000010020006011b8008e
:1008c0000020e10001a8e10002b0e10003b8e1006e
:1008d00010003600a08120003002be002003be00c0
:1008e00000272000010020006011b8000020e10076
:1008f00001a8e10002b0e10003b8e10005003e00fc
:1009000082418000c0fd210011c3b30002004000fd
:1009100001487800804180000000e80080418800a4
:100920008141800000022000808f50000f003a00bb
:100930003028ef002c28ef0010002000c041880074
:10094000a48020006000b8006011b800009abe00ca
:100950000292be00248120006000b8006011b8003f
:10096000009abe000292be006a0907000080fa00e9
:100970003400f9004f05be004f04be004f03be0017
:100980004f02be004f01be004f00be003600f9000e
:10099000004006000040da000000fe0000000500f4
:1009a000889fbe008a9fbe008c1f78000006eb0067
:1009b000e00f5000e08f5800e00f5900e08f590021
:1009c00007003d006044b8006055b80000005400c6
:1009d00081805c0002015d0083815d001c002000bd
:1009e000e00f5200e08f5a00e00f5b00e08f5b00e9
:1009f00007003d006044b8006055b8000402540090
:100a000085825c0006035d0087835d000c00a20008
:100a10000c0007000c00e000060032006022b80065
:100a20006033b8000000520081805a0002015b0070
:100a300083815b004f0678004f05be004f04be0067
:100a400000000600889fbe008a9fbe008c9fbe00eb
:100a50000404b8000506b8008904460060854e000d
:100a60000606b8000a054600e0854e000706b800f5
:100a70008b054600040eb800890446000a854e0026
:100a8000e0854d00050eb8000a0546008b854e0036
:100a9000060eb8008b0546000416b8000a0546008d
:100aa0008b854e000516b8008b054600041eb80065
:100ab0008b0546000800be000a01be004f06be00be
:100ac0004f05be004f04be00000006008001780004
:100ad00002003700b15978000201e9000200e0008d
:100ae000fcff3a0000000600800078000400370098
:100af0003104e00002003a0000005100000006004e
:100b0000010178000108a300f9ff3a008101780093
:100b100031017800f4ef2f00020242000281ea0066
:100b2000020162000408280004016100f7ff32009e
:100b300083007800010178003104e000fdff3a00f5
:080b4000000051000000060056
:020000040000fa
:100b4800427400006e200000300000004274000073
:100b58006e20000031000000427400006e2000008a
:100b680032000000427400006e20000033000000d4
:100b7800427400006e20000034000000427400003f
:100b88006e20000035000000427400006e20000056
:100b980036000000427400006e200000370000009c
:100ba800427400006e20000038000000427400000b
:100bb8006e20000039000000427400006e20000022
:100bc8003130000000420000746e00002031000047
:100bd80031000000427400006e2000003132000035
:100be80000420000746e0000203100003300000055
:100bf800427400006e200000313400000042000002
:100c0800746e0000203100003500000042740000be
:100c18006e2000003136000000420000746e0000b3
:100c28002031000037000000427400006e200000f0
:100c38003138000000420000746e000020310000ce
:100c480039000000427400006e20000032300000bd
:100c580000420000746e00002032000031000000e5
:100c6800427400006e200000323200000042000092
:100c7800746e00002032000033000000427400004f
:100c88006e2000003234000000420000746e000044
:100c98002032000035000000427400006e20000081
:100ca8003236000000420000746e0000203200005e
:100cb80037000000427400006e2000003238000047
:100cc80000420000746e000020320000390000006d
:100cd800427400006e200000333000000042000023
:100ce800746e000020330000310000006e6f0000b9
:100cf800744600006f7500006e640000003000004c
:100d0800303000003030000030300000303100005a
:100d18003131000031300000313100003130000045
:100d28003031000031310000303000003031000037
:100d38003130000030300000313100003130000027
:100d4800303000003030000030300000303100001a
:100d58003131000031300000313100003131000004
:100d680030310000313100003030000030300000f8
:100d780031300000303000003131000031300000e7
:100d880030300000303000003030000030310000da
:100d980031310000313000003131000031300000c5
:100da80031310000313100003030000030310000b6
:100db80030300000303000003131000031300000a8
:100dc800303000003030000030300000303100009a
:100dd8003131000031300000313100003131000084
:100de8003131000031310000303000003030000077
:100df8003030000030300000313100003130000068
:100e08003030000030300000303000003031000059
:100e18003131000031300000313100003130000044
:100e28003030000030300000303000003031000039
:100e38003131000031310000313100003130000023
:100e48003030000030300000303000003031000019
:100e58003131000031300000313100003131000003
:100e680030300000303000003030000030300000fa
:100e780031310000313100003131000031300000e3
:100e880030300000303000003030000030310000d9
:100e980031310000313000003131000031300000c4
:100ea80031300000303000003030000030310000b8
:100eb80030310000313100003131000031300000a4
:100ec8003030000030300000303000003031000099
:100ed8003131000031300000313100003131000083
:100ee8003130000030300000303000003030000079
:100ef8003031000031310000313100003130000064
:100f08003030000030300000303000003031000058
:100f18003131000031300000313100003130000043
:100f28003031000030300000303000003031000037
:100f38003130000031310000313100003130000023
:100f48003030000030300000303000003031000018
:100f58003131000031300000313100003131000002
:100f680030310000303000003030000030300000f8
:100f780031300000313100003131000031300000e3
:100f880030300000303000003030000030310000d8
:100f980031310000313000003131000031300000c3
:100fa80031310000303000003030000030310000b6
:100fb80030300000313100003131000031300000a4
:100fc8003030000030300000303000003031000098
:100fd8003131000031300000313100003131000082
:100fe8003131000030300000303000003030000077
:100ff8003030000031310000313100003130000064
:101008003030000030300000303000003031000057
:101018003131000031300000313100003130000042
:101028003030000031300000303000003031000036
:101038003131000030310000313100003130000022
:101048003030000030300000303000003031000017
:101058003131000031300000313100003131000001
:1010680030300000313000003030000030300000f7
:1010780031310000303100003131000031300000e2
:1010880030300000303000003030000030310000d7
:1010980031310000313000003131000031300000c2
:1010a80031300000313000003030000030310000b5
:1010b80030310000303100003131000031300000a3
:1010c8003030000030300000303000003031000097
:1010d8003131000031300000313100003131000081
:1010e8003130000031300000303000003030000076
:1010f8003031000030310000313100003130000063
:101108003030000030300000303000003031000056
:101118003131000031300000313100003130000041
:101128003031000031300000303000003031000034
:101138003130000030310000313100003130000022
:101148003030000030300000303000003031000016
:101158003131000031300000313100003131000000
:1011680030310000313000003030000030300000f5
:1011780031300000303100003131000031300000e2
:1011880030300000303000003030000030310000d6
:1011980031310000313000003131000031300000c1
:1011a80031310000313000003030000030310000b3
:1011b80030300000303100003131000031300000a3
:1011c8003030000030300000303000003031000096
:1011d8003131000031300000313100003131000080
:1011e8003131000031300000303000003030000074
:1011f8003030000030310000313100003130000063
:101208003030000030300000303000003031000055
:101218003131000031300000313100003130000040
:101228003030000030310000303000003031000034
:101238003131000031300000313100003130000020
:101248003030000030300000303000003031000015
:1012580031310000313000003131000031310000ff
:1012680030300000303100003030000030300000f5
:1012780031310000313000003131000031300000e0
:1012880030300000303000003030000030310000d5
:1012980031310000313000003131000031300000c0
:1012a80031300000303100003030000030310000b3
:1012b80030310000313000003131000031300000a1
:1012c8003030000030300000303000003031000095
:1012d800313100003130000031310000313100007f
:1012e8003130000030310000303000003030000074
:1012f8003031000031300000313100003130000061
:101308003030000030300000303000003031000054
:10131800313100003130000031310000313000003f
:101328003031000030310000303000003031000032
:101338003130000031300000313100003130000020
:101348003030000030300000303000003031000014
:1013580031310000313000003131000031310000fe
:1013680030310000303100003030000030300000f3
:1013780031300000313000003131000031300000e0
:1013880030300000303000003030000030310000d4
:1013980031310000313000003131000031300000bf
:1013a80031310000303100003030000030310000b1
:1013b80030300000313000003131000031300000a1
:1013c8003030000030300000303000003031000094
:1013d800313100003130000031310000313100007e
:1013e8003131000030310000303000003030000072
:1013f8003030000031300000313100003130000061
:101408003030000030300000303000003031000053
:10141800313100003130000031310000313000003e
:101428003030000031310000303000003031000031
:10143800313100003030000031310000313000001f
:101448003030000030300000303000003031000013
:1014580031310000313000003131000031310000fd
:1014680030300000313100003030000030300000f2
:1014780031310000303000003131000031300000df
:1014880030300000303000003030000030310000d3
:1014980031310000313000003131000031300000be
:1014a80031300000313100003030000030310000b0
:1014b80030310000303000003131000031300000a0
:1014c8003030000030300000303000003031000093
:1014d800313100003130000031310000313100007d
:1014e8003130000031310000303000003030000071
:1014f8003031000030300000313100003100000090
:10150800686500006c6c00006f2c0000007700001c
:0c1518006f7200006c64000021000000f5
:020000040000fa
:101524000c00fa0068014700000978006a004700cf
:1015340001087800f10f20006600470001087800d8
:101544008000eb0064004700010878000000eb0015
:10155400000f78003d003700710020000e80e80085
:1015640001087800340037001e00780000004000b5
:10157400e800470091007800008040009000780067
:101584000e80e800100078000088de000000e00013
:101594000600320066004700100078000000e000fa
:1015a4000200320010002000010037000000eb00b0
:1015b400e10f50000e003a0064004700100078006c
:1015c40000004000ea0047009100780000804000dd
:1015d4001100200001087800640047001000780022
:1015e4008000e80064004700010878000d0037001f
:1015f400640047001000780000004000ea00470043
:1016040091007800008040008000eb000108780021
:1016140064004700100078008000e8006400470080
:10162400010878000e80e800100078008000e900ce
:101634000e80e800010878000e80e80010007800b1
:101644000000e000c8ff3d001e0fe8001e00780007
:10165400fa0f5000c0ff34000080fa0000000600ba
:101664000400fa008e80e800800878000000eb0097
:10167400000f78000c0037001e00780000004000c6
:101684008e80e8009100780000804000100078000f
:10169400e10f500002003a004c0907000100370036
:1016a400430907001e0fe800702820009e00780000
:1016b400808f5000f0ff34000080fa000000060024
:1016c4000400fa008e80e800800878000000eb0037
:1016d400000f78000c0037001e0078000000400066
:1016e4008e80e800910078000080400010007800af
:1016f400e10f500002003a004309070001003700df
:10170400390907001e0fe800702820009e007800a9
:10171400808f5000f0ff34000080fa0000000600c3
:101724000400fa008e80e800800878000000eb00d6
:10173400000f78000c0037001e0078000000400005
:101744008e80e8009100780000804000100078004e
:10175400e10f500002003a003b0907000100370086
:10176400310907001e0fe800702820009e00780051
:10177400808f5000f0ff34000080fa000000060063
:101784000400fa008e80e800800878000000eb0076
:10179400000f78000000eb00000f78000200370013
:1017a400410907001e0fe8000e80e80010007800d1
:1017b4009e007800808f5000f9ff35000080fa0009
:1017c400000006000400fa00000f78000e80e80014
:1017d40001087800620320000e80e8009000780081
:1017e40080c02000b8fc0700620320000e80e800df
:1017f40090007800e0c32000b3fc070062032000df
:101804000e80e8009000780040c72000aefc07007e
:101814000e80e80090007800c0832000808f500084
:1018240005003200620320000e80e800900078007a
:10183400a0ca2000a4fc07009e007800d1418800c3
:101844001e007800e10f500008003a0001ce20008d
:1018540080c0200032ff0700c422ef000f090700f8
:1018640000ce20007eff07002a0037001e0078000b
:10187400e20f500008003a00011f2100e0c32000dd
:1018840027ff0700c422ef0004090700001f2100fe
:101894008bff07001f0037001e007800e30f500085
:1018a40008003a000170210040c720001cff070017
:1018b400c422ef00f90807000070210098ff070018
:1018c400140037001e007800e40f500011003a00a5
:1018d40001ce200080c0200011ff0700011f21005d
:1018e400e0c320000eff07000170210040c7200064
:1018f4000bff0700c422ef00e808070000ce200019
:1019040057ff0700001f21006dff07000070210032
:1019140083ff07000080fa00000006000000fa00c0
:10192400d041800061c42100a6ff0700a00f200061
:1019340093ff0700d041800081ce2100a1ff070062
:10194400a00f20008eff0700d0418000a1d8210005
:101954009cff0700a00f200089ff0700d0418000f2
:10196400c1e2210097ff0700a00f200084ff0700b9
:10197400d0418000e1ec210092ff0700a00f20007d
:101984007fff0700d041800001c121008dff0700c7
:10199400a00f20007aff0700d0418000e1d1210090
:1019a40088ff0700a00f200075ff0700d0418000ca
:1019b40001dc210083ff0700a00f200070ff070057
:1019c400d041800041d521007eff0700a00f2000f8
:1019d4006bff0700d0418000c1c7210079ff0700d9
:1019e400a00f200066ff0700d041800021e62100ff
:1019f40074ff0700a00f200061ff0700d0418000a2
:101a040061df21006fff0700a00f20005cff0700cb
:101a1400d041800081e921006aff0700a00f200067
:101a240057ff0700d0418000a1f3210065ff0700a4
:101a3400a00f200052ff0700b9ff37000000fa0092
:101a4400d041800001f721005eff0700400620001e
:101a54004bff0700d0418000c183200059ff0700dd
:101a64004006200046ff0700d041800001f7210016
:101a740054ff07004006200041ff0700d0418000ca
:101a8400c18320004fff0700400620003cff0700f1
:101a9400d041800061fa21004aff0700400620007f
:101aa40037ff0700d0418000c183200045ff0700b5
:101ab4004006200032ff0700d041800061fa210077
:101ac40040ff0700400620002dff0700d0418000a2
:101ad400c18320003bff07004006200028ff0700c9
:101ae400d7ff37000200fa000000eb00000f780077
:101af40062032000a1ca200040912000f2fb0700ed
:101b04000000eb00000f78001f0037001e00780073
:101b140080004000409120000080400010007800c8
:101b240012f02f00000141001e00780080004000e8
:101b34004091200000804000020878001e007800d8
:101b44008000400040912000008040001000780098
:101b54000000e0000b003d001e0078008000400003
:101b64004091200000804000100078000001ea004d
:101b74001e0078008000400040912000008040005a
:101b8400020878001e0fe8001e007800fa0f5000cb
:101b9400deff3400d04180004191200009ff07009e
:101ba400fcff37000200fa000000eb00000f780091
:101bb40062032000a1ca2000808a2000c2fb070023
:101bc4000000eb00000f78001f0037001e007800b3
:101bd40080004000808a20000080400010007800cf
:101be40012f02f00000141001e0078008000400028
:101bf400808a200000804000020878001e007800df
:101c040080004000808a200000804000100078009e
:101c14000000e0000b003d001e0078008000400042
:101c2400808a200000804000100078000001ea0053
:101c34001e00780080004000808a20000080400060
:101c4400020878001e0fe8001e007800fa0f50000a
:101c5400deff340062032000a1ca2000e08d2000d2
:101c640099fb070062032000e18d200020872000fb
:101c740095fb070070458000c043880080458000c4
:101c8400d043880090458000e0438800c04680002f
:101c940010458800d046800020458800e04680003a
:101ca40030458800d041800021872000c5fe070010
:101cb400803e2000b2fe070062032000e18d200078
:101cc4002087200080fb0700d04580002044880046
:101cd400e045800030448800f0458000404488009e
:101ce400404580009043880050458000a043880010
:101cf40060458000b0438800d041800021872000e7
:101d0400b0fe0700803e20009dfe07006203200015
:101d1400e18d2000208720006bfb07003046800007
:101d240080448800404680009044880050468000eb
:101d3400a0448800a0458000f0438800b04580009e
:101d440000448800c045800010448800d0418000d1
:101d5400218720009bfe0700803e200088fe0700ac
:101d640062032000e18d20002087200056fb07003d
:101d740090468000e0448800a0468000f04488003b
:101d8400b04680000045880060468000b04488006a
:101d940070468000c044880080468000d04488009b
:101da400d04180002187200086fe0700803e20006d
:101db40073fe0700a7ff37000000fa00d04180003f
:101dc400a1ca20007ffe0700e00120006cfe07008e
:101dd400d0418000c18320007afe0700e00120008a
:101de40067fe0700f5ff37004c00fa000000eb0027
:101df400000f78008000eb000e80e80001087800f6
:101e04008000eb0064004700010878008000eb00cc
:101e140068004700010878008000eb006a00470072
:101e2400010878008000eb006c004700010878008e
:101e34008000eb0066004700010878008000eb009a
:101e44006600470001087800240037006600470058
:101e5400100078000000e00008003a006600470027
:101e64001000780080004000a0ca2000808040005c
:101e74006e00470011087800130037006600470021
:101e840010007800e10f500008003a006600470097
:101e94001000780080004000a0ca2000808040002c
:101ea40070004700110878000700370066004700fb
:101eb4001000780080004000a0ca2000808040000c
:101ec400720047001108780066004700100078008f
:101ed4008000e800660047000108780066004700bb
:101ee40010007800e10f5000d8ff3400680047006c
:101ef4001e0878006a0047008e80e8001108780008
:101f04006c004700e4004700110878008000eb00f3
:101f140074004700010878008000eb006600470069
:101f24000108780081003700760047001e08780019
:101f3400780047008e80e800110878007a00470096
:101f4400e4004700110878007c0047001e08780070
:101f54007e0047008e80e80011087800000220000f
:101f64000e004000e4004700110878002002200021
:101f74000e0040001e087800400220000e004000c1
:101f84008e80e80011087800600220000e004000f6
:101f9400e400470011087800800220000e00400091
:101fa4001e087800a00220000e0040008e80e80089
:101fb40011087800c00220000e004000e400470031
:101fc40011087800e00220000e0040001e0878008e
:101fd400000320000e0040008e80e8001108780005
:101fe400200320000e004000e400470011087800a0
:101ff400400320000e0040001e087800600320000b
:102004000e0040008e80e800110878008003200054
:102014000e004000e400470011087800a0032000ef
:102024000e0040001e087800c00320000e0040008f
:102034008e80e80011087800e00320000e004000c4
:10204400e400470011087800000420000e0040005e
:102054001e087800200420000e0040008e80e80056
:1020640011087800400420000e004000e4004700fe
:1020740011087800600420000e0040001e0878005b
:10208400800420000e0040008e80e80011087800d3
:10209400a00420000e004000e4004700110878006e
:1020a400d24180007600470080007800020078006a
:1020b400c4fd0700f00f20009e007800808f5000c0
:1020c400010032001e0fe8000e80e8009000780046
:1020d400f00f2000808f5000050032000e80e800d1
:1020e400100078008000e8000e80e8000108780005
:1020f4006400470090007800f00f2000808f5000ab
:102104000500320064004700100078008000e800f9
:10211400640047000108780066004700100078005a
:102124008000e80066004700010878006600470068
:1021340090007800e00f2000808f50007aff340078
:10214400f10f200066004700010878008400370082
:10215400760047001e087800780047008e80e8006b
:10216400110878007a004700e4004700110878005d
:102174007c0047001e0878007e0047008e80e8003f
:1021840011087800000220000e004000e40047001f
:1021940011087800200220000e0040001e0878007c
:1021a400400220000e0040008e80e80011087800f4
:1021b400600220000e004000e4004700110878008f
:1021c400800220000e0040001e087800a0022000bb
:1021d4000e0040008e80e80011087800c002200044
:1021e4000e004000e400470011087800e0022000df
:1021f4000e0040001e087800000320000e0040007e
:102204008e80e80011087800200320000e004000b2
:10221400e400470011087800400320000e0040004d
:102224001e087800600320000e0040008e80e80045
:1022340011087800800320000e004000e4004700ed
:1022440011087800a00320000e0040001e0878004a
:10225400c00320000e0040008e80e80011087800c2
:10226400e00320000e004000e4004700110878005d
:10227400000420000e0040001e0878002004200006
:102284000e0040008e80e800110878004004200011
:102294000e004000e40047001108780060042000ac
:1022a4000e0040001e087800800420000e0040004c
:1022b4008e80e80011087800a00420000e00400081
:1022c400e400470011087800d241800076004700fe
:1022d40080007800020078003afd0700680047009b
:1022e400100078009e007800808f500001003200ba
:1022f4001e0fe9000e80e800900078006a00470095
:1023040010007800808f5000050032000e80e80035
:10231400100078008000e9000e80e80001087800d1
:1023240064004700900078006c00470010007800bb
:10233400808f5000050032006400470010007800d0
:102344008000e90064004700010878006600470047
:10235400100078008000e90066004700010878005a
:1023640066004700100078000000e00078ff3c00a1
:10237400e9fe37000200fa000000eb00000f7800cd
:1023840062032000a1ca2000a0942000cef9070017
:1023940062032000a1ca200000982000caf90700a7
:1023a40062032000a1ca2000609b2000c6f9070038
:1023b40062032000a1ca2000c09e2000c2f90700c9
:1023c40062032000a1ca200020a22000bef9070059
:1023d4000000eb00000f7800580037001e00780062
:1023e400e20f5000030034001e007800f80f500084
:1023f400190034001e00780080004000a0942000e2
:10240400008040008000eb00010878001e00780086
:102414008000400000982000008040008000eb0015
:10242400010878001e00780080004000609b2000b6
:10243400008040008000eb00010878001e00780056
:1024440080004000c09e2000008040008000eb001f
:1024540001087800380037001e007800e50f5000ae
:10246400030034001e007800f50f50001300340000
:102474001e00780080004000a094200000804000ee
:102484008000eb00010878001e0078008000400006
:1024940000982000008040008000eb0001087800d4
:1024a4001e00780080004000609b200000804000f7
:1024b4008000eb00010878001f0037001e00780040
:1024c400e80f5000030034001e007800f20f5000a3
:1024d4000d0034001e00780080004000a09420000d
:1024e400008040008000eb00010878001e007800a6
:1024f4008000400000982000008040008000eb0035
:10250400010878000c0037001e007800eb0f500023
:10251400030034001e007800ee0f50000600340063
:102524001e00780080004000a0942000008040003d
:102534008000eb00010878001e0fe8001e00780000
:10254400fa0f5000a5ff3400d0418000a194200070
:102554009cfc0700800c200089fc0700d04180000f
:102564000198200097fc0700800c200084fc0700e1
:10257400d0418000619b200092fc0700800c200069
:102584007ffc0700d0418000c19e20008dfc070025
:10259400800c20007afc0700d041800021a220009a
:1025a40088fc0700800c200075fc0700d0418000e7
:1025b400c19e200083fc0700800c200070fc0700f3
:1025c400d0418000619b20007efc0700800c20002d
:1025d4006bfc0700d04180000198200079fc0700c3
:1025e400800c200066fc0700d7ff37000200fa00c9
:1025f4000000eb00000f780062032000a1ca200055
:1026040080a5200030f9070062032000a1ca200041
:10261400e0a820002cf9070062032000a1ca2000d2
:1026240040ac200028f9070062032000a1ca200062
:10263400a0af200024f9070062032000a1ca2000f3
:1026440000b3200020f9070062032000a1ca200083
:1026540060b620001cf9070062032000a1ca200014
:10266400c0b9200018f9070062032000a1ca2000a5
:1026740020bd200014f90700a0012000000f7800fd
:10268400710137001e007800f70f50002b00340052
:102694001e0078008000400080a5200000804000db
:1026a4008000eb00010878001e00780080004000e4
:1026b400e0a82000008040008000eb0001087800c2
:1026c4001e0078008000400040ac200000804000e4
:1026d4008000eb00010878001e00780080004000b4
:1026e400a0af2000008040008000eb0001087800cb
:1026f4001e0078008000400000b3200000804000ed
:102704008000eb00010878001e0078008000400083
:1027140060b62000008040008000eb0001087800d3
:102724001e00780080004000c0b9200000804000f6
:102734008000eb0001087800420137001e00780099
:10274400f40f5000250034001e0078008000400083
:1027540080a52000008040008000eb000108780084
:102764001e00780080004000e0a8200000804000a7
:102774008000eb00010878001e0078008000400013
:1027840040ac2000008040008000eb00010878008d
:102794001e00780080004000a0af200000804000b0
:1027a4008000eb00010878001e00780080004000e3
:1027b40000b32000008040008000eb000108780096
:1027c4001e0078008000400060b6200000804000b9
:1027d4008000eb00010878001a0137001e00780021
:1027e400f10f5000250034001e00780080004000e6
:1027f40080a52000008040008000eb0001087800e4
:102804001e00780080004000e0a820000080400006
:102814008000eb00010878001e0078008000400072
:1028240040ac2000008040008000eb0001087800ec
:102834001e00780080004000a0af2000008040000f
:102844008000eb00010878001e0078008000400042
:1028540000b32000008040008000eb0001087800f5
:102864001e0078008000400020bd20000080400051
:102874008000eb0001087800f20037001e007800a9
:10288400ee0f5000250034001e0078008000400048
:1028940080a52000008040008000eb000108780043
:1028a4001e00780080004000e0a820000080400066
:1028b4008000eb00010878001e00780080004000d2
:1028c40040ac2000008040008000eb00010878004c
:1028d4001e00780080004000a0af2000008040006f
:1028e4008000eb00010878001e00780080004000a2
:1028f400c0b92000008040008000eb00010878008f
:102904001e0078008000400020bd200000804000b0
:102914008000eb0001087800ca0037001e00780030
:10292400eb0f5000250034001e00780080004000aa
:1029340080a52000008040008000eb0001087800a2
:102944001e00780080004000e0a8200000804000c5
:102954008000eb00010878001e0078008000400031
:1029640040ac2000008040008000eb0001087800ab
:102974001e0078008000400060b620000080400007
:102984008000eb00010878001e0078008000400001
:10299400c0b92000008040008000eb0001087800ee
:1029a4001e0078008000400020bd20000080400010
:1029b4008000eb0001087800a20037001e007800b8
:1029c400e80f5000250034001e007800800040000d
:1029d40080a52000008040008000eb000108780002
:1029e4001e00780080004000e0a820000080400025
:1029f4008000eb00010878001e0078008000400091
:102a040000b32000008040008000eb000108780043
:102a14001e0078008000400060b620000080400066
:102a24008000eb00010878001e0078008000400060
:102a3400c0b92000008040008000eb00010878004d
:102a44001e0078008000400020bd2000008040006f
:102a54008000eb00010878007a0037001e0078003f
:102a6400e50f5000250034001e007800800040006f
:102a740080a52000008040008000eb000108780061
:102a84001e00780080004000a0af200000804000bd
:102a94008000eb00010878001e00780080004000f0
:102aa40000b32000008040008000eb0001087800a3
:102ab4001e0078008000400060b6200000804000c6
:102ac4008000eb00010878001e00780080004000c0
:102ad400c0b92000008040008000eb0001087800ad
:102ae4001e0078008000400020bd200000804000cf
:102af4008000eb0001087800520037001e007800c7
:102b0400e20f5000250034001e00780080004000d1
:102b140040ac2000008040008000eb0001087800f9
:102b24001e00780080004000a0af2000008040001c
:102b34008000eb00010878001e007800800040004f
:102b440000b32000008040008000eb000108780002
:102b54001e0078008000400060b620000080400025
:102b64008000eb00010878001e007800800040001f
:102b7400c0b92000008040008000eb00010878000c
:102b84001e0078008000400020bd2000008040002e
:102b94008000eb00010878002a0037001e0078004e
:102ba40080004000e0a82000008040008000eb008e
:102bb400010878001e0078008000400040ac20002e
:102bc400008040008000eb00010878001e007800bf
:102bd40080004000a0af2000008040008000eb0097
:102be400010878001e0078008000400000b3200037
:102bf400008040008000eb00010878001e0078008f
:102c04008000400060b62000008040008000eb009f
:102c1400010878001e00780080004000c0b9200040
:102c2400008040008000eb00010878001e0078005e
:102c34008000400020bd2000008040008000eb00a8
:102c4400010878001e0fe9001e0078000000e00073
:102c54008cfe3d00d041800081a52000d9fa0700f8
:102c640040062000c6fa0700d0418000e1a82000f9
:102c7400d4fa070040062000c1fa0700d0418000c2
:102c840041ac2000cffa070040062000bcfa070040
:102c9400d0418000a1af2000cafa070040062000fe
:102ca400b7fa0700d041800001b32000c5fa07003d
:102cb40040062000b2fa0700d041800061b620002f
:102cc400c0fa070040062000adfa0700d04180009a
:102cd400c1b92000bbfa070040062000a8fa07008b
:102ce400d041800021bd2000b6fa07004006200034
:102cf400a3fa0700d0418000c1b92000b1fa07004f
:102d0400400620009efa0700d041800061b62000f2
:102d1400acfa07004006200099fa0700d041800071
:102d240001b32000a7fa07004006200094fa070028
:102d3400d0418000a1af2000a2fa07004006200085
:102d44008ffa0700d041800041ac20009dfa0700b3
:102d5400400620008afa0700d0418000e1a8200044
:102d640098fa07004006200085fa0700b9ff3700eb
:102d74000000fa0000fe2f00001688000001200069
:102d840020168800c1832000400020008dfa07002f
:102d9400401f20007afa07000080fa0000000600b5
:102da4000200fa000000eb00000f7800a00f2000e2
:102db400170307001e00780000407800614060009f
:102dc4000080fb00610060004700dd0061168000a8
:102dd4000170a10001007000601688001e007800d8
:102de40000407800614060000080fb0061006000ea
:102df4004600dd00611680000160a1000100700042
:102e0400601688001e0078000000e0000300320015
:102e14000000eb00000f7800e4ff370010002000f2
:102e2400000f7800e1ff37000000fa00c902a80093
:102e34006ac0a800113a8000f00b200000816000f5
:102e4400600420007105200023742000804978006c
:102e540081497800824978007134800000fe2f0097
:102e6400008060000030a00070348800103a8000b8
:102e7400000178000260a0006004200071052000b9
:102e840023742000804978008149780082497800c1
:102e94001021ef0081088000f0fc2f00008060000a
:102ea4000050a000800888000080eb0060088800c3
:102eb4000621ef004221ef0042e1a800110a800040
:102ec400f0f92f0000806000100a8800110a8000c9
:102ed40080ff2f00008060000010a000100a88000e
:102ee4008420a9009420a80094e0a80084e0a9000c
:102ef40011e1a8000080fa00000006000000fa00ba
:102f0400c8e2a900c8c2a9000080fa0000000600b7
:102f14000604fa0010002000940207008040eb0031
:102f24000040eb00f3020700e60047003268280087
:102f3400ff030900b25878000000eb00000f78008e
:102f44008000eb000e80e800010878002d003700b7
:102f54008000eb0064004700010878001800370087
:102f64006400470010007800700040008e80e80084
:102f740091007800c508dd00008040000000470093
:102f8400660040009040780064004700100078001c
:102f940070004000c2fd2100000041001040780094
:102fa40080cf500001003a001e0fe8006400470083
:102fb400100078008000e8006400470001087800f1
:102fc4006400470010007800ec0f5000e4ff340068
:102fd4001e007800ed0f500003003a000000eb00e3
:102fe400000f78000b0037000000eb00000f7800a2
:102ff4000e80e800100078008000e8000e80e800f1
:10300400010878000e80e80010007800ff0f5000df
:10301400cfff34000e80e80010007800cf80de007f
:10302400f201200003002000820f5000838f58001b
:10303400be003e00006001001f0037002100370081
:1030440026003700280037002a0037002f003700f9
:1030540034003700390037003e00370043003700a2
:10306400480037004d003700510037005600370044
:103074005b003700600037006200370067003700ec
:103084006c00370071003700730037007800370098
:103094007d00370082003700840037008600370047
:1030a400880037008a0037008c0037009000370012
:1030b4009400370098003700405a28009b0207000c
:1030c4009d003700a05a280098020700d0418000d4
:1030d400c1832000bbf9070097003700005b28007c
:1030e4009202070094003700605b28008f020700fb
:1030f40091003700c05b28008c020700d04180009b
:1031040061c42100aff907008b003700205c280060
:1031140086020700d041800001c12100a9f90700ff
:1031240085003700805c280080020700d0418000c1
:10313400c1c72100a3f907007f003700e05c280025
:103144007a020700d041800021cb21009df90700bd
:1031540079003700405d280074020700d0418000e8
:1031640081ce210097f9070073003700a05d280085
:103174006e020700d0418000e1d1210091f90700df
:103184006d003700005e280068020700d04180000f
:1031940041d521008bf9070067003700705e2800d5
:1031a400620207001000200090418800620037008e
:1031b400e05e28005d020700d0418000a1d8210014
:1031c40080f907005c003700505f280057020700b1
:1031d400d041800001dc21007af907005600370055
:1031e400c05f280051020700d041800061df210048
:1031f40074f9070050003700306028004b020700c4
:103204004d003700a060280048020700d04180002c
:10321400c1e221006bf90700470037001061280064
:1032240042020700d041800021e6210065f9070031
:1032340041003700806128003c020700d041800033
:1032440081e921005ff907003b003700f0612800a5
:103254003602070038003700606228003302070096
:10326400d0418000e1ec210056f90700320037001c
:10327400d06228002d020700d041800041f02100d7
:1032840050f907002c00370040632800270207008c
:10329400d0418000a1f321004af90700260037003d
:1032a400b0632800210207002300370020642800af
:1032b4001e02070020003700906428001b0207004c
:1032c4001d00370000652800180207001a003700a7
:1032d400706528001502070017003700e065280014
:1032e4001202070010002000d041880012003700ad
:1032f400506628000d02070020002000d0418800fd
:103304000d003700c06628000802070030002000c6
:10331400d041880008003700306728000302070006
:1033240040002000d041880003003700a067280037
:10333400fe01070000000000803e2000b4010700e9
:1033440010002000890107000080fa000000060038
:020000040000fa
:10335400dc1f000020000000000000000008000046
:1033640034000000000000003808000002000000e3
:103374000200000001000000101c0000cc0300004b
:1033840002000000ff00000000000000ff00000039
:1033940000000000ff00000000000000ff0000002b
:1033a40000000000ff00000000000000ff0000001b
:1033b40000000000ff00000000000000ff0000000b
:1033c40000000000ff000000000000000000ff00fb
:1033d400000000000000ff00000000000000ff00eb
:1033e400000000000000ff00000000000000ff00db
:1033f400000000000000ff00000000000000ff00cb
:10340400000000000000ff00000000000000ff00ba
:10341400000000000000000000ff000000000000a9
:1034240000ff00000000000000ff0000000000009a
:1034340000ff00000000000000ff0000000000008a
:1034440000ff00000000000000ff0000000000007a
:1034540000ff00000000000000ff0000ff00ff006c
:1034640000ff0000ff00ff0000ff0000ff00ff005e
:1034740000ff0000ff00ff0000ff0000ff00ff004e
:1034840000ff0000ff00ff0000ff0000ff00ff003e
:1034940000ff0000ff00ff0000ff0000ff00ff002e
:1034a40000ff00000f00ff00000000000f00ff00fd
:1034b400000000000f00ff00000000000f00ff00ec
:1034c400000000000f00ff00000000000f00ff00dc
:1034d400000000000f00ff00000000000f00ff00cc
:1034e400000000000f00ff0000000000ff000000cb
:1034f40000140000ff00000000140000ff000000a2
:1035040000140000ff00000000140000ff00000091
:1035140000140000ff00000000140000ff00000081
:1035240000140000ff00000000140000ff00000071
:10353400001400005000000000ff000050000000d4
:1035440000ff00005000000000ff000050000000d9
:1035540000ff00005000000000ff000050000000c9
:1035640000ff00005000000000ff000050000000b9
:1035740000ff00005000000000ff00001e00ff00dc
:10358400000000001e00ff00000000001e00ff00fd
:10359400000000001e00ff00000000001e00ff00ed
:1035a400000000001e00ff00000000001e00ff00dd
:1035b400000000001e00ff00000000001e00ff00cd
:1035c40000000000ff00000000ff0000ff000000fa
:1035d40000ff0000ff00000000ff0000ff000000eb
:1035e40000ff0000ff00000000ff0000ff000000db
:1035f40000ff0000ff00000000ff0000ff000000cb
:1036040000ff0000ff00000000ff000000007f003a
:1036140000ff000000007f0000ff000000007f00aa
:1036240000ff000000007f0000ff000000007f009a
:1036340000ff000000007f0000ff000000007f008a
:1036440000ff000000007f0000ff000000007f007a
:1036540000ff00003200ff00000000003200ff0005
:10366400000000003200ff00000000003200ff00f4
:10367400000000003200ff00000000003200ff00e4
:10368400000000003200ff00000000003200ff00d4
:10369400000000003200ff000000000000000000f5
:1036a400004b000000000000004b00000000000080
:1036b400004b000000000000004b00000000000070
:1036c400004b000000000000004b00000000000060
:1036d400004b000000000000004b00000000000050
:1036e400004b00000000ff0000ff00000000ff008e
:1036f40000ff00000000ff0000ff00000000ff00ca
:1037040000ff00000000ff0000ff00000000ff00b9
:1037140000ff00000000ff0000ff00000000ff00a9
:1037240000ff00000000ff0000ff0000ff00ff009a
:1037340000000000ff00ff0000000000ff00ff0089
:1037440000000000ff00ff0000000000ff00ff0079
:1037540000000000ff00ff0000000000ff00ff0069
:1037640000000000ff00ff0000000000ff00ff0059
:103774000000000000000000000f00000000000036
:10378400000f000000000000000f00000000000017
:10379400000f000000000000000f00000000000007
:1037a400000f000000000000000f000000000000f7
:1037b400000f000000000000000f00000000ff00e8
:1037c400007f00000000ff00007f00000000ff00f9
:1037d400007f00000000ff00007f00000000ff00e9
:1037e400007f00000000ff00007f00000000ff00d9
:1037f400007f00000000ff00007f00000000ff00c9
:10380400007f00000000000000ff00000000000036
:1038140000ff00000000000000ff000000000000a6
:10382400003200003200320000ff000000000000ff
:1038340000ff00000000000000ff00000000000086
:1038440000ff00000000000000ff00000000ff0077
:10385400000000000000ff00000000000000ff0066
:10386400000000000000ff000000000032003200f1
:10387400003200000000ff00000000000000ff0014
:10388400000000000000ff00000000000000ff0036
:10389400000000003c080000d413000000000000f9
:1038a4003408000004000000000000003a08000092
:1038b40002000000020000000400000000000000fc
:020000040000fa
:1038c4000000fa00d0092000a01088008a40a90056
:1038d40017e2a800a1d0210020032000010001006c
:1038e40081cb2100800320000100010081cb210055
:1038f400900320000100010081cb21004001200041
:103904000100010081cb210000072000010001001b
:1039140081cb2100600520000100010081cb210042
:10392400c006200001000100a1d02100800c20006d
:103934000100010081cb210080032000010001006f
:1039440081cb2100c00020000100010081cb2100b7
:103954001000200001000100a1d02100100020006f
:10396400010001000080fa00000006000200fa00d5
:10397400000f78008a40a9001602a8000000000089
:10398400b0108000610060000000e000fcff3a001d
:103994008a40a900c00720009010880000000000a1
:1039a40050048000640060000000e000fcff32006e
:1039b4008a40a9001222ef00000000005004800099
:1039c400640060000000e000fcff32008a40a900af
:1039d4001e00780090108800000000005004800051
:1039e400640060000000e000fcff32008a40a9008f
:1039f4001642a80000000000b010800064006000bf
:103a04000000e000fcff3a000080fa00000006001d
:103a14000200fa00000f7800020037007e3e090021
:103a2400000000001e00780000f0a7000000ea007b
:103a34000000ea004f00de00004078001e0fe9009d
:103a44000004e000f5ff3a000080fa0000000600e0
:103a54000200fa00004f78001602a80000000000df
:103a6400b0108000610060000000e000fcff3a003c
:103a74008a40a900c00720009010880000000000c0
:103a840050048000640060000000e000fcff32008d
:103a94008a40a90000042000901088000000000063
:103aa40050048000640060000000e000fcff32006d
:103ab4008a40a9001e00fb0090108800000000004e
:103ac40050048000640060000000e000fcff32004d
:103ad4008a40a9001642a80000000000b01080002f
:103ae400640060000000e000fcff3a000080fa007f
:103af400000006000200fa00004f78000e00e80003
:103b0400014878001e00fb00c600dd000e00e8003e
:103b1400104078000000fb00008040000008b00066
:103b240092ff07000080fa00000006000400fa007b
:103b3400881f78008e80e800800878000000eb0081
:103b4400000f7800070037009e0078000e80e80020
:103b5400100078000100400010407800bcff07000e
:103b64001e0fe8001e0478000e80e80010007800a4
:103b7400dcf30700800f5400f3ff39004f04780092
:103b84000080fa00000006000000fa00c0012000d6
:103b940076ff07000080fa00000006000000fa002b
:103ba4008001200071ff07000080fa000000060079
:103bb400c422ec000400090000000000c422ef004d
:103bc400090009000000000000000600c422ec0007
:103bd4000b00090000000000c422ef0002000900ed
:103be40000000000000006002000200020168800cd
:103bf4000400090000000000c422ef0009000900cd
:103c040000000000000006002000200020168800ac
:103c14000b00090000000000c422ef0002000900ac
:103c240000000000000006000001200020168800ab
:103c34000400090000000000c422ef00090009008c
:103c4400000000000000060000012000201688008b
:103c54000b00090000000000c422ef00020009006c
:103c64000000000000000600c422ec00040009006b
:103c740000000000c422ef00090009000000000059
:103c840000000600c422ec000b0009000000000044
:103c9400c422ef0000000000000006001d0309001c
:103ca40000000000000006003a3e09000000000089
:103cb400000006000000fa00213a8000f08f2f0077
:103cc40000806000203a8800f0ff29006019880015
:103cd4000080fa00000006000000fa00f5ff07006b
:103ce40023fc0700f6fe07008040eb000040eb00d9
:103cf40080ff070040a828008cff07008040eb00ed
:103d040010c0b3007bff0700b0a8280087ff07009e
:103d1400803e20003eff07001000200013ff070034
:103d240041fc070075fc070011fc0700ffff37008a
:020000040000fa
:020000040001f9
:0457f8000ff90000a5
:020000040000fa
:020000040001f9
:0457fc007f3f0000eb
:00000001FF
