:020000040000fa
:080000000002040000000000f2
:020000040000fa
:0400080034070000b9
:020000040000fa
:04000c0034070000b5
:020000040000fa
:0400100034070000b1
:020000040000fa
:0400140034070000ad
:020000040000fa
:0400180034070000a9
:020000040000fa
:04001c0034070000a5
:020000040000fa
:0400200034070000a1
:020000040000fa
:04002400340700009d
:020000040000fa
:040028003407000099
:020000040000fa
:04002c000a030000c3
:020000040000fa
:040030003407000091
:020000040000fa
:04003400bc04000008
:020000040000fa
:040038003407000089
:020000040000fa
:04003c003407000085
:020000040000fa
:040040003407000081
:020000040000fa
:04004400d0020000e6
:020000040000fa
:040048003407000079
:020000040000fa
:04004c003407000075
:020000040000fa
:040050003407000071
:020000040000fa
:04005400340700006d
:020000040000fa
:040058003407000069
:020000040000fa
:04005c003407000065
:020000040000fa
:040060003407000061
:020000040000fa
:04006400340700005d
:020000040000fa
:040068003407000059
:020000040000fa
:04006c003407000055
:020000040000fa
:040070003407000051
:020000040000fa
:04007400340700004d
:020000040000fa
:040078003407000049
:020000040000fa
:04007c003407000045
:020000040000fa
:040080003407000041
:020000040000fa
:04008400340700003d
:020000040000fa
:040088003407000039
:020000040000fa
:04008c003407000035
:020000040000fa
:040090003407000031
:020000040000fa
:04009400340700002d
:020000040000fa
:040098003407000029
:020000040000fa
:04009c003407000025
:020000040000fa
:0400a0003407000021
:020000040000fa
:0400a400340700001d
:020000040000fa
:0400a8003407000019
:020000040000fa
:0400ac003407000015
:020000040000fa
:0400b0003407000011
:020000040000fa
:0400b400340700000d
:020000040000fa
:0400b8003407000009
:020000040000fa
:0400bc003407000005
:020000040000fa
:0400c0003407000001
:020000040000fa
:0400c40034070000fd
:020000040000fa
:0400c80034070000f9
:020000040000fa
:0400cc0034070000f5
:020000040000fa
:0400d00034070000f1
:020000040000fa
:0400d40034070000ed
:020000040000fa
:0400d80034070000e9
:020000040000fa
:0400dc0034070000e5
:020000040000fa
:0400e00034070000e1
:020000040000fa
:0400e40034070000dd
:020000040000fa
:0400e80034070000d9
:020000040000fa
:0400ec0034070000d5
:020000040000fa
:0400f00034070000d1
:020000040000fa
:0400f40034070000cd
:020000040000fa
:0400f80034070000c9
:020000040000fa
:0400fc0034070000c5
:020000040000fa
:0401000034070000c0
:020000040000fa
:0401040034070000bc
:020000040000fa
:0401080034070000b8
:020000040000fa
:04010c0034070000b4
:020000040000fa
:0401100034070000b0
:020000040000fa
:0401140034070000ac
:020000040000fa
:0401180034070000a8
:020000040000fa
:04011c0034070000a4
:020000040000fa
:0401200034070000a0
:020000040000fa
:04012400340700009c
:020000040000fa
:040128003407000098
:020000040000fa
:04012c003407000094
:020000040000fa
:040130003407000090
:020000040000fa
:04013400340700008c
:020000040000fa
:040138003407000088
:020000040000fa
:04013c003407000084
:020000040000fa
:040140003407000080
:020000040000fa
:04014400340700007c
:020000040000fa
:040148003407000078
:020000040000fa
:0402080034070000b7
:020000040000fa
:04020c0034070000b3
:020000040000fa
:0402100034070000af
:020000040000fa
:0402140034070000ab
:020000040000fa
:0402180034070000a7
:020000040000fa
:04021c0034070000a3
:020000040000fa
:04022000340700009f
:020000040000fa
:04022400340700009b
:020000040000fa
:040228003407000097
:020000040000fa
:04022c000a030000c1
:020000040000fa
:04023000340700008f
:020000040000fa
:04023400bc04000006
:020000040000fa
:040238003407000087
:020000040000fa
:04023c003407000083
:020000040000fa
:04024000340700007f
:020000040000fa
:04024400d0020000e4
:020000040000fa
:040248003407000077
:020000040000fa
:04024c003407000073
:020000040000fa
:04025000340700006f
:020000040000fa
:04025400340700006b
:020000040000fa
:040258003407000067
:020000040000fa
:04025c003407000063
:020000040000fa
:04026000340700005f
:020000040000fa
:04026400340700005b
:020000040000fa
:040268003407000057
:020000040000fa
:04026c003407000053
:020000040000fa
:04027000340700004f
:020000040000fa
:04027400340700004b
:020000040000fa
:040278003407000047
:020000040000fa
:04027c003407000043
:020000040000fa
:04028000340700003f
:020000040000fa
:04028400340700003b
:020000040000fa
:040288003407000037
:020000040000fa
:04028c003407000033
:020000040000fa
:04029000340700002f
:020000040000fa
:04029400340700002b
:020000040000fa
:040298003407000027
:020000040000fa
:04029c003407000023
:020000040000fa
:0402a000340700001f
:020000040000fa
:0402a400340700001b
:020000040000fa
:0402a8003407000017
:020000040000fa
:0402ac003407000013
:020000040000fa
:0402b000340700000f
:020000040000fa
:0402b400340700000b
:020000040000fa
:0402b8003407000007
:020000040000fa
:0402bc003407000003
:020000040000fa
:0402c00034070000ff
:020000040000fa
:0402c40034070000fb
:020000040000fa
:0402c80034070000f7
:020000040000fa
:0402cc0034070000f3
:020000040000fa
:0402d00034070000ef
:020000040000fa
:0402d40034070000eb
:020000040000fa
:0402d80034070000e7
:020000040000fa
:0402dc0034070000e3
:020000040000fa
:0402e00034070000df
:020000040000fa
:0402e40034070000db
:020000040000fa
:0402e80034070000d7
:020000040000fa
:0402ec0034070000d3
:020000040000fa
:0402f00034070000cf
:020000040000fa
:0402f40034070000cb
:020000040000fa
:0402f80034070000c7
:020000040000fa
:0402fc0034070000c3
:020000040000fa
:0403000034070000be
:020000040000fa
:0403040034070000ba
:020000040000fa
:0403080034070000b6
:020000040000fa
:04030c0034070000b2
:020000040000fa
:0403100034070000ae
:020000040000fa
:0403140034070000aa
:020000040000fa
:0403180034070000a6
:020000040000fa
:04031c0034070000a2
:020000040000fa
:04032000340700009e
:020000040000fa
:04032400340700009a
:020000040000fa
:040328003407000096
:020000040000fa
:04032c003407000092
:020000040000fa
:04033000340700008e
:020000040000fa
:04033400340700008a
:020000040000fa
:040338003407000086
:020000040000fa
:04033c003407000082
:020000040000fa
:04034000340700007e
:020000040000fa
:04034400340700007a
:020000040000fa
:040348003407000076
:020000040000fa
:100400002f0922000e7f22000e018800000000004c
:10041000000020000000e000020032000001200087
:100420002002880014000700910207000000e0008d
:1004300003003a00c0202200010020000200370023
:100440000000200001002000810f70000100320038
:1004500014000700000020000000e000020032004d
:100460000000020000000000da2602000000000088
:100470000040da000000fe004440a900e04e2000e9
:100480000000e0000300320000002000a00188000e
:100490004440a800000006008a1f78008b1f7800e7
:1004a0000000060091018800800478000000eb0045
:1004b0001a003700e284440032a0b4009905ba0063
:1004c000e284440032a0b4009906ba00e2844400f9
:1004d00032a0b4000006eb00476fde00fd07b2005b
:1004e000636ce10003003a00ebff07000000eb0043
:1004f0000a003700606ce10004003a00005deb0088
:100500008b05e900fdff3e00040037006168e10053
:10051000010032000086eb000b00070019c7ba008b
:100520001905ba000e04e00003003a000a00e000da
:10053000e0ff3a0000000600fe07b2009e018800be
:100540008a047800f5ff3700395dba008b05e900b1
:100550000c003200295dba008b05e900080032006a
:100560000c00e00003003a00e284440032a0b40032
:10057000f5ff370019ddba008b05e900faff3a00f4
:100580008904e800e184440032a0b40000000600c1
:10059000000000000000000000000000000000005b
:1005a000809fbe00829fbe00849fbe00869fbe00cb
:1005b0003400f80000002000a00188000000fa00cc
:1005c00084e0a900208020003002be002003be008d
:1005d00010002000010020006011b800000042005f
:1005e00081804a0002014b0083814b00248020005f
:1005f000009abe000292be000080fa003400f900aa
:100600004f03be004f02be004f01be004f00be00b0
:10061000004006003600f800809fbe00829fbe00aa
:10062000849fbe00869fbe00889fbe008a9fbe003a
:100630003400f80000002000a00188000000fa004b
:100640008420a90020438000e10f500010003a00f0
:10065000604180000000e0000d003a000621ef003c
:10066000248020006000b8006011b800009abe002d
:100670000292be00a48020006000b8006011b800a3
:10068000009abe000292be006428ef00b00037005e
:10069000a08020005001be004000be002481200048
:1006a000009abe000292be00600880000000e800d0
:1006b0006104b8006055b800208020005001be00e1
:1006c0004000be000203be000002be000800be00e3
:1006d0000a01be00e70107000203be000002be00df
:1006e000000a80008000eb006011b80000004200aa
:1006f00081804a0002014b0083814b00a4802000ce
:10070000009abe000292be00a08020003002be000f
:100710002003be00208120005001be004000be002a
:100720000000520081805a0002015b0083815b005f
:10073000a4812000009abe000292be00a081200089
:100740003002be002003be00900f200001002000f8
:100750006011b8000020e10001a8e10002b0e10052
:1007600003b8e1007a003600204380000000e0007a
:100770001c003a00604180000000e00019003a00cf
:10078000a08120003002be002003be0040ce200029
:10079000010020006011b8000020e10001a8e10084
:1007a00002b0e10003b8e1000e003600a081200095
:1007b0003002be002003be0090d7200001002000c0
:1007c0006011b8000020e10001a8e10002b0e100e2
:1007d00003b8e10003003e001000200060418800e3
:1007e0005b00370060418000e10f500058003a0084
:1007f000a08120003002be002003be0000272000a0
:10080000010020006011b8000020e10001a8e10013
:1008100002b0e10003b8e1004d003e00a0812000dd
:100820003002be002003be00a00f20000100200007
:100830006011b8000020e10001a8e10002b0e10071
:1008400003b8e10011003600a08120003002be0094
:100850002003be00d0152000010020006011b80068
:100860000020e10001a8e10002b0e10003b8e100ce
:1008700006003e00824180002007220001c3b30031
:1008800002004000014878001b003700a0812000d2
:100890003002be002003be00401f200001002000e7
:1008a0006011b8000020e10001a8e10002b0e10001
:1008b00003b8e10010003600a08120003002be0025
:1008c0002003be0000272000010020006011b800b6
:1008d0000020e10001a8e10002b0e10003b8e1005e
:1008e00005003e00824180002007220011c3b300b2
:1008f0000200400001487800804180000000e800cc
:10090000804188008141800000022000808f5000db
:100910000f003a003028ef002c28ef0010002000d4
:1009200020438800a48020006000b8006011b80057
:10093000009abe000292be00248120006000b80030
:100940006011b800009abe000292be00690d070057
:100950000080fa003400f9004f05be004f04be00cd
:100960004f03be004f02be004f01be004f00be004d
:100970003600f900004006003600f800809fbe00f7
:10098000829fbe00849fbe00869fbe00889fbe00df
:100990008a9fbe003400f80000002000a0018800fb
:1009a0000000fa008460a900100880000000e80040
:1009b0006104b8006055b800808320005001be007b
:1009c0004000be000203be000002be000800be00e0
:1009d0000a01be00270107000203be000002be009c
:1009e000000880008000eb006011b80000004200a9
:1009f00081804a0002014b0083814b000484200067
:100a0000009abe000292be0062c8bf000000fb0058
:100a100031072000810f50003900320031072000db
:100a2000810f50000a003c0071062000810f500029
:100a30001800320091062000810f5000c0003200e3
:100a400061062000810f5000a2003200ef00370045
:100a500061072000810f500047003200610720002d
:100a6000810f500004003c0041072000810f50001e
:100a70005f003200e500370071072000810f500051
:100a8000b700320091072000810f5000760032003d
:100a9000de003700808320003002be002003be004d
:100aa00080012000010020006011b8000020e1005a
:100ab00001a8e10002b0e10003b8e100c600360081
:100ac00080428000df070700804280008000e8004d
:100ad000e000200000017800110009008200d80029
:100ae0008000fd0080428800848320006000b80000
:100af0006011b800009abe000292be00c300370029
:100b0000808320003002be002003be0020002000b1
:100b1000010020006011b8000020e10001a8e10000
:100b200002b0e10003b8e100ad0036009042800061
:100b300017080700904280008000e800700028003d
:100b4000008060000000e00004003d000000e900bb
:100b500081ff2f00008070000000e80090428800b4
:100b6000848320006000b8006011b800009abe00c5
:100b70000292be00a5003700808320003002be0034
:100b80002003be0020002000010020006011b800fa
:100b90000020e10001a8e10002b0e10003b8e1009b
:100ba00091003600a0428000f9080700a0428000b2
:100bb0008000e80010002800008060000000e000d5
:100bc00004003d000000e900e1ff2f0000807000fc
:100bd0000000e800a0428800848320006000b80084
:100be0006011b800009abe000292be008700370074
:100bf000808320003002be002003be0030062000ab
:100c0000010020006011b8000020e10001a8e1000f
:100c100002b0e10003b8e10075003600b042800088
:100c20007a080700b04280008000e8003000280009
:100c3000008060000000e00004003d000000e900ca
:100c4000c1ff2f00008070000000e800b042880063
:100c5000848320006000b8006011b800009abe00d4
:100c60000292be0069003700808320003002be007f
:100c70002003be0090002000010020006011b80099
:100c80000020e10001a8e10002b0e10003b8e100aa
:100c900059003600c0428000dd0b0700c0428000d2
:100ca0008000e800e0002000000178001100090049
:100cb0008200d8008000fd00c042880084832000ac
:100cc0006000b8006011b800009abe000292be0039
:100cd0004e003700808320003002be002003be009b
:100ce00090002000010020006011b8000020e10009
:100cf00001a8e10002b0e10003b8e10040003600c5
:100d0000d0428000b4080700d04280008000e80094
:100d10003000200000017800110009008200d80096
:100d20008000fd00d0428800848320006000b8006d
:100d30006011b800009abe000292be003300370076
:100d4000fa07070084832000100020000100200023
:100d50006011b800009abe000292be002b0037005e
:100d6000808320003002be002003be0090002000df
:100d7000010020006011b8000020e10001a8e1009e
:100d800002b0e10003b8e1001f003600e04280003d
:100d9000ca090700e04280008000e80070002800d7
:100da000008060000000e00004003d000000e90059
:100db00081ff2f00008070000000e800e042880002
:100dc000848320006000b8006011b800009abe0063
:100dd0000292be000d003700000000000b0037003b
:100de0000000000009003700000000000700370085
:100df000000000000500370000000000030037007d
:100e00000000000001003700000000008083200087
:100e10003002be002003be001000200001002000b0
:100e20006011b8000000420081804a0002014b00be
:100e300083814b0084832000009abe000292be0092
:100e40000080fa003400f9004f05be004f04be00d8
:100e50004f03be004f02be004f01be004f00be0058
:100e60003600f900004006000040da000000fe00f5
:100e700000000500889fbe008a9fbe008c1f78007e
:100e80000006eb00e00f5000e08f5800e00f590023
:100e9000e08f590007003d006044b8006055b8007d
:100ea0000000540081805c0002015d0083815d00d0
:100eb0001c002000e00f5200e08f5a00e00f5b00a2
:100ec000e08f5b0007003d006044b8006055b8004b
:100ed0000402540085825c0006035d0087835d0088
:100ee0000c00a2000c0007000c00e000060032001d
:100ef0006022b8006033b8000000520081805a00c0
:100f000002015b0083815b004f0678004f05be0045
:100f10004f04be0000000600889fbe008a9fbe00ee
:100f20008c9fbe000404b8000506b8008904460082
:100f300060854e000606b8000a054600e0854e00b2
:100f40000706b8008b054600040eb8008904460069
:100f50000a854e00e0854d00050eb8000a054600e2
:100f60008b854e00060eb8008b0546000416b800af
:100f70000a0546008b854e000516b8008b05460015
:100f8000041eb8008b0546000800be000a01be0022
:100f90004f06be004f05be004f04be000000060015
:100fa0008001780002003700b15978000201e900a1
:100fb0000200e000fcff3a0000000600800078001c
:100fc000040037003104e00002003a000000510044
:100fd00000000600010178000108a300f9ff3a00b3
:100fe0008101780031017800f4ef2f000202420005
:100ff0000281ea0002016200040828000401610085
:10100000f7ff320083007800010178003104e0002e
:0c101000fdff3a00000051000000060047
:020000040000fa
:10101c00427400006e20000030000000427400009a
:10102c006e20000031000000427400006e200000b1
:10103c0032000000427400006e20000033000000fb
:10104c00427400006e200000340000004274000066
:10105c006e20000035000000427400006e2000007d
:10106c0036000000427400006e20000037000000c3
:10107c00427400006e200000380000004274000032
:10108c006e20000039000000427400006e20000049
:10109c003130000000420000746e0000203100006e
:1010ac0031000000427400006e200000313200005c
:1010bc0000420000746e000020310000330000007c
:1010cc00427400006e200000313400000042000029
:1010dc00746e0000203100003500000042740000e6
:1010ec006e2000003136000000420000746e0000db
:1010fc002031000037000000427400006e20000018
:10110c003138000000420000746e000020310000f5
:10111c0039000000427400006e20000032300000e4
:10112c0000420000746e000020320000310000000c
:10113c00427400006e2000003232000000420000b9
:10114c00746e000020320000330000004274000076
:10115c006e2000003234000000420000746e00006b
:10116c002032000035000000427400006e200000a8
:10117c003236000000420000746e00002032000085
:10118c0037000000427400006e200000323800006e
:10119c0000420000746e0000203200003900000094
:1011ac00427400006e20000033300000004200004a
:1011bc00746e000020330000310000006e6f0000e0
:1011cc00744600006f7500006e6400000030000073
:1011dc003030000030300000303000003031000082
:1011ec00313100003130000031310000313000006d
:1011fc00303100003131000030300000303100005f
:10120c00313000003030000031310000313000004e
:10121c003030000030300000303000003031000041
:10122c00313100003130000031310000313100002b
:10123c00303100003131000030300000303000001f
:10124c00313000003030000031310000313000000e
:10125c003030000030300000303000003031000001
:10126c0031310000313000003131000031300000ec
:10127c0031310000313100003030000030310000dd
:10128c0030300000303000003131000031300000cf
:10129c0030300000303000003030000030310000c1
:1012ac0031310000313000003131000031310000ab
:1012bc00313100003131000030300000303000009e
:1012cc00303000003030000031310000313000008f
:1012dc003030000030300000303000003031000081
:1012ec00313100003130000031310000313000006c
:1012fc003030000030300000303000003031000061
:10130c00313100003131000031310000313000004a
:10131c003030000030300000303000003031000040
:10132c00313100003130000031310000313100002a
:10133c003030000030300000303000003030000021
:10134c00313100003131000031310000313000000a
:10135c003030000030300000303000003031000000
:10136c0031310000313000003131000031300000eb
:10137c0031300000303000003030000030310000df
:10138c0030310000313100003131000031300000cb
:10139c0030300000303000003030000030310000c0
:1013ac0031310000313000003131000031310000aa
:1013bc0031300000303000003030000030300000a0
:1013cc00303100003131000031310000313000008b
:1013dc003030000030300000303000003031000080
:1013ec00313100003130000031310000313000006b
:1013fc00303100003030000030300000303100005f
:10140c00313000003131000031310000313000004a
:10141c00303000003030000030300000303100003f
:10142c003131000031300000313100003131000029
:10143c00303100003030000030300000303000001f
:10144c00313000003131000031310000313000000a
:10145c0030300000303000003030000030310000ff
:10146c0031310000313000003131000031300000ea
:10147c0031310000303000003030000030310000dd
:10148c0030300000313100003131000031300000cb
:10149c0030300000303000003030000030310000bf
:1014ac0031310000313000003131000031310000a9
:1014bc00313100003030000030300000303000009e
:1014cc00303000003131000031310000313000008b
:1014dc00303000003030000030300000303100007f
:1014ec00313100003130000031310000313000006a
:1014fc00303000003130000030300000303100005e
:10150c003131000030310000313100003130000049
:10151c00303000003030000030300000303100003e
:10152c003131000031300000313100003131000028
:10153c00303000003130000030300000303000001e
:10154c003131000030310000313100003130000009
:10155c0030300000303000003030000030310000fe
:10156c0031310000313000003131000031300000e9
:10157c0031300000313000003030000030310000dc
:10158c0030310000303100003131000031300000ca
:10159c0030300000303000003030000030310000be
:1015ac0031310000313000003131000031310000a8
:1015bc00313000003130000030300000303000009d
:1015cc00303100003031000031310000313000008a
:1015dc00303000003030000030300000303100007e
:1015ec003131000031300000313100003130000069
:1015fc00303100003130000030300000303100005c
:10160c003130000030310000313100003130000049
:10161c00303000003030000030300000303100003d
:10162c003131000031300000313100003131000027
:10163c00303100003130000030300000303000001c
:10164c003130000030310000313100003130000009
:10165c0030300000303000003030000030310000fd
:10166c0031310000313000003131000031300000e8
:10167c0031310000313000003030000030310000da
:10168c0030300000303100003131000031300000ca
:10169c0030300000303000003030000030310000bd
:1016ac0031310000313000003131000031310000a7
:1016bc00313100003130000030300000303000009b
:1016cc00303000003031000031310000313000008a
:1016dc00303000003030000030300000303100007d
:1016ec003131000031300000313100003130000068
:1016fc00303000003031000030300000303100005c
:10170c003131000031300000313100003130000047
:10171c00303000003030000030300000303100003c
:10172c003131000031300000313100003131000026
:10173c00303000003031000030300000303000001c
:10174c003131000031300000313100003130000007
:10175c0030300000303000003030000030310000fc
:10176c0031310000313000003131000031300000e7
:10177c0031300000303100003030000030310000da
:10178c0030310000313000003131000031300000c8
:10179c0030300000303000003030000030310000bc
:1017ac0031310000313000003131000031310000a6
:1017bc00313000003031000030300000303000009b
:1017cc003031000031300000313100003130000088
:1017dc00303000003030000030300000303100007c
:1017ec003131000031300000313100003130000067
:1017fc00303100003031000030300000303100005a
:10180c003130000031300000313100003130000047
:10181c00303000003030000030300000303100003b
:10182c003131000031300000313100003131000025
:10183c00303100003031000030300000303000001a
:10184c003130000031300000313100003130000007
:10185c0030300000303000003030000030310000fb
:10186c0031310000313000003131000031300000e6
:10187c0031310000303100003030000030310000d8
:10188c0030300000313000003131000031300000c8
:10189c0030300000303000003030000030310000bb
:1018ac0031310000313000003131000031310000a5
:1018bc003131000030310000303000003030000099
:1018cc003030000031300000313100003130000088
:1018dc00303000003030000030300000303100007b
:1018ec003131000031300000313100003130000066
:1018fc003030000031310000303000003031000059
:10190c003131000030300000313100003130000046
:10191c00303000003030000030300000303100003a
:10192c003131000031300000313100003131000024
:10193c003030000031310000303000003030000019
:10194c003131000030300000313100003130000006
:10195c0030300000303000003030000030310000fa
:10196c0031310000313000003131000031300000e5
:10197c0031300000313100003030000030310000d7
:10198c0030310000303000003131000031300000c7
:10199c0030300000303000003030000030310000ba
:1019ac0031310000313000003131000031310000a4
:1019bc003130000031310000303000003030000098
:1019cc0030310000303000003131000031000000b7
:1019dc00686500006c6c00006f2c00000077000044
:0c19ec006f7200006c640000210000001d
:020000040000fa
:1019f8000000fa0000fe2f000016880000012000f9
:101a080020168800c189200040002000b503070087
:101a1800401f2000ac0007000421ef0021088000cf
:101a2800f0fc2f00008060000040a0002008880023
:101a3800f0e12400100888000021ef002105800053
:101a4800f0ff280080806000000025000100700081
:101a5800200588009460a8008460a90005e1a8001a
:101a68000080fa00000006000c00fa006801470038
:101a7800000978006a00470001087800f10f20008b
:101a880066004700010878008000eb00640047000a
:101a9800010878000000eb00000f78003d003700d7
:101aa800710020000e80e80001087800340037003b
:101ab8001e00780000004000e80047009100780010
:101ac80000804000900078000e80e8001000780048
:101ad8000088de000000e0000600320066004700d3
:101ae800100078000000e000020032001000200022
:101af800010037000000eb00e10f50000e003a0033
:101b0800640047001000780000004000ea00470029
:101b18009100780000804000110020000108780042
:101b280064004700100078008000e8006400470067
:101b3800010878000d0037006400470010007800a5
:101b480000004000ea004700910078000080400053
:101b58008000eb000108780064004700100078005e
:101b68008000e80064004700010878000e80e80063
:101b7800100078008000e9000e80e8000108780075
:101b88000e80e800100078000000e000c8ff3d006b
:101b98001e0fe8001e007800fa0f5000c0ff340046
:101ba8000080fa00000006000400fa008e80e800b9
:101bb800800878000000eb00000f78000c00370068
:101bc8001e007800000040008e80e8009100780038
:101bd8000080400010007800e10f500002003a0039
:101be8002b0c070001003700220c07001e0fe8002d
:101bf800702820009e007800808f5000f0ff34008d
:101c08000080fa00000006000400fa008e80e80058
:101c1800800878000000eb00000f78000c00370007
:101c28001e007800000040008e80e80091007800d7
:101c38000080400010007800e10f500002003a00d8
:101c4800220c070001003700180c07001e0fe800df
:101c5800702820009e007800808f5000f0ff34002c
:101c68000080fa00000006000400fa008e80e800f8
:101c7800800878000000eb00000f78000c003700a7
:101c88001e007800000040008e80e8009100780077
:101c98000080400010007800e10f500002003a0078
:101ca8001a0c070001003700100c07001e0fe8008f
:101cb800702820009e007800808f5000f0ff3400cc
:101cc8000080fa00000006000400fa008e80e80098
:101cd800800878000000eb00000f78000000eb009f
:101ce800000f780002003700200c07001e0fe800e4
:101cf8000e80e800100078009e007800808f500069
:101d0800f9ff35000080fa00000006000400fa0020
:101d18008e80e800800878000e80e80010007800c7
:101d28006101b9000080eb008080eb0002004000f8
:101d3800838048005201200003002000820f5000d9
:101d4800838f5800e5023e0000600100150037004f
:101d5800e2023700e10237003e0037006900370031
:101d680094003700bf003700cc003700f700370079
:101d780022013700d90237004c01370077013700bc
:101d8800a2013700d5023700cc013700f701370030
:101d980022023700d10237004c02370077023700a1
:101da800a20237000000eb00000f78002500370082
:101db8009e00780030002000000178001100090022
:101dc8008200d8008000fd000000e00007003a0013
:101dd8001e007800800040006086200000804000df
:101de8008000eb0001087800150037009e0078009d
:101df8003000200000017800110009008200d8009e
:101e08008000fd00e10f500007003a001e00780036
:101e18008000400060862000008040008000eb00c9
:101e280001087800060037001e0078008000400096
:101e380060862000008040008000eb0001087800e8
:101e48001e0fe8001e007800fa0f5000d8ff34007b
:101e5800a20237000000eb00000f780025003700d1
:101e68009e00780030002000000178001100090071
:101e78008200d8008000fd000000e00007003a0062
:101e88001e0078008000400060862000008040002e
:101e98008000eb0001087800150037009e007800ec
:101ea8003000200000017800110009008200d800ed
:101eb8008000fd00e10f500007003a001e00780086
:101ec800800040006086200000804000f10f200064
:101ed80001087800060037001e00780080004000e6
:101ee80060862000008040008000eb000108780038
:101ef8001e0fe8001e007800fa0f5000d8ff3400cb
:101f0800760237000000eb00000f7800250037004c
:101f18009e007800300020000001780011000900c0
:101f28008200d8008000fd000000e00007003a00b1
:101f38001e0078008000400060862000008040007d
:101f4800f10f200001087800150037009e00780086
:101f58003000200000017800110009008200d8003c
:101f68008000fd00e10f500007003a001e007800d5
:101f78008000400060862000008040008000eb0068
:101f880001087800060037001e0078008000400035
:101f980060862000008040008000eb000108780087
:101fa8001e0fe8001e007800fa0f5000d8ff34001a
:101fb8004a0237000000eb00000f780025003700c8
:101fc8009e00780030002000000178001100090010
:101fd8008200d8008000fd000000e00007003a0001
:101fe8001e007800800040006086200000804000cd
:101ff8008000eb0001087800150037009e0078008b
:102008003000200000017800110009008200d8008b
:102018008000fd00e10f500007003a001e00780024
:102028008000400060862000008040008000eb00b7
:1020380001087800060037001e0078008000400084
:102048006086200000804000f10f20000108780021
:102058001e0fe8001e007800fa0f5000d8ff340069
:102068001e0237000000eb00000f78000700370061
:102078001e0078008000400060862000008040003c
:10208800f10f2000010878001e0fe8001e007800fc
:10209800fa0f5000f6ff3400100237000000eb0082
:1020a800000f7800250037009e00780030002000df
:1020b80000017800110009008200d8008000fd00ae
:1020c8000000e00007003a001e0078008000400091
:1020d8006086200000804000010820000108780088
:1020e800150037009e0078003000200000017800bd
:1020f800110009008200d8008000fd00e10f5000a7
:1021080007003a001e00780080004000608620002a
:1021180000804000f10f2000010878000600370019
:102128001e0078008000400060862000008040008b
:102138008000eb00010878001e0fe8001e00780000
:10214800fa0f5000d8ff3400e40137000000eb001c
:10215800000f7800250037009e007800300020002e
:1021680000017800110009008200d8008000fd00fd
:102178000000e00007003a001e00780080004000e0
:102188006086200000804000f10f200001087800e0
:10219800150037009e00780030002000000178000c
:1021a800110009008200d8008000fd00e10f5000f6
:1021b80007003a001e00780080004000608620007a
:1021c8000080400031032000010878000600370035
:1021d8001e007800800040006086200000804000db
:1021e80031032000010878001e0fe8001e00780067
:1021f800fa0f5000d8ff3400b80137000000eb0098
:10220800000f7800250037009e007800300020007d
:1022180000017800110009008200d8008000fd004c
:102228000000e00007003a001e007800800040002f
:102238006086200000804000010820000108780026
:10224800150037009e00780030002000000178005b
:10225800110009008200d8008000fd00e10f500045
:1022680007003a001e0078008000400060862000c9
:10227800008040008000eb0001087800060037006d
:102288001e0078008000400060862000008040002a
:10229800f10f2000010878001e0fe8001e007800ea
:1022a800fa0f5000d8ff34008c0137000000eb0013
:1022b800000f7800250037009e00780030002000cd
:1022c80000017800110009008200d8008000fd009c
:1022d8000000e00007003a001e007800800040007f
:1022e80060862000008040009109200001087800e5
:1022f800150037009e0078003000200000017800ab
:10230800110009008200d8008000fd00e10f500094
:1023180007003a001e007800800040006086200018
:1023280000804000f10f2000010878000600370007
:102338001e00780080004000608620000080400079
:1023480031032000010878001e0fe8001e00780005
:10235800fa0f5000d8ff3400600137000000eb008e
:10236800000f7800250037009e007800300020001c
:1023780000017800110009008200d8008000fd00eb
:102388000000e00007003a001e00780080004000ce
:102398006086200000804000f10f200001087800ce
:1023a800150037009e0078003000200000017800fa
:1023b800110009008200d8008000fd00e10f5000e4
:1023c80007003a001e007800800040006086200068
:1023d800008040008000eb0001087800060037000c
:1023e8001e007800800040006086200000804000c9
:1023f800f10f2000010878001e0fe8001e00780089
:10240800fa0f5000d8ff3400340137000000eb0009
:10241800000f7800250037009e007800300020006b
:1024280000017800110009008200d8008000fd003a
:102438000000e00007003a001e007800800040001d
:1024480060862000008040008000eb0001087800d2
:10245800150037009e007800300020000001780049
:10246800110009008200d8008000fd00e10f500033
:1024780007003a001e0078008000400060862000b7
:1024880000804000f10720000108780006003700ae
:102498001e00780080004000608620000080400018
:1024a800f10f2000010878001e0fe8001e007800d8
:1024b800fa0f5000d8ff3400080137000000eb0085
:1024c800000f7800250037009e00780030002000bb
:1024d80000017800110009008200d8008000fd008a
:1024e8000000e00007003a001e007800800040006d
:1024f8006086200000804000210b20000108780041
:10250800150037009e007800300020000001780098
:10251800110009008200d8008000fd00e10f500082
:1025280007003a001e007800800040006086200006
:1025380000804000f10f20000108780006003700f5
:102548001e00780080004000608620000080400067
:1025580061062000010878001e0fe8001e007800c0
:10256800fa0f5000d8ff3400dc0037000000eb0001
:10257800000f7800250037009e007800300020000a
:1025880000017800110009008200d8008000fd00d9
:102598000000e00007003a001e00780080004000bc
:1025a8006086200000804000310320000108780088
:1025b800150037009e0078003000200000017800e8
:1025c800110009008200d8008000fd00e10f5000d2
:1025d80007003a001e007800800040006086200056
:1025e8000080400031032000010878000600370011
:1025f8001e007800800040006086200000804000b7
:10260800f10f2000010878001e0fe8001e00780076
:10261800fa0f5000d8ff3400b00037000000eb007c
:10262800000f7800250037009e0078003000200059
:1026380000017800110009008200d8008000fd0028
:102648000000e00007003a001e007800800040000b
:1026580060862000008040008000eb0001087800c0
:10266800150037009e007800300020000001780037
:10267800110009008200d8008000fd00e10f500021
:1026880007003a001e0078008000400060862000a5
:1026980000804000f10f2000010878000600370094
:1026a8001e00780080004000608620000080400006
:1026b800f10f2000010878001e0fe8001e007800c6
:1026c800fa0f5000d8ff3400840037000000eb00f8
:1026d800000f7800250037009e00780030002000a9
:1026e80000017800110009008200d8008000fd0078
:1026f8000000e00007003a001e007800800040005b
:102708006086200000804000f10f2000010878005a
:10271800150037009e007800300020000001780086
:10272800110009008200d8008000fd00e10f500070
:1027380007003a001e0078008000400060862000f4
:1027480000804000f10f20000108780006003700e3
:102758001e00780080004000608620000080400055
:102768008000eb00010878001e0fe8001e007800ca
:10277800fa0f5000d8ff3400580037000000eb0073
:10278800000f7800250037009e00780030002000f8
:1027980000017800110009008200d8008000fd00c7
:1027a8000000e00007003a001e00780080004000aa
:1027b8006086200000804000f10f200001087800aa
:1027c800150037009e0078003000200000017800d6
:1027d800110009008200d8008000fd00e10f5000c0
:1027e80007003a001e007800800040006086200044
:1027f800008040008000eb000108780006003700e8
:102808001e007800800040006086200000804000a4
:1028180001082000010878001e0fe8001e0078005b
:10282800fa0f5000d8ff34002c0037000000eb00ee
:10283800000f7800250037009e0078003000200047
:1028480000017800110009008200d8008000fd0016
:102858000000e00007003a001e00780080004000f9
:1028680060862000008040008000eb0001087800ae
:10287800150037009e007800300020000001780025
:10288800110009008200d8008000fd00e10f50000f
:1028980007003a001e007800800040006086200093
:1028a80000804000f10f2000010878000600370082
:1028b8001e007800800040006086200000804000f4
:1028c800f1072000010878001e0fe8001e007800bc
:1028d800fa0f5000d8ff3400000000000080fa0012
:1028e800000006000400fa00000f78000e80e800df
:1028f80001087800620320000e80e800900078004c
:1029080080c62000a4f90700620320000e80e800ba
:1029180090007800e0c920009ff9070062032000ba
:102928000e80e8009000780040cd20009af907005a
:102938000e80e80090007800c0892000808f500049
:1029480005003200620320000e80e8009000780045
:10295800a0d0200090f907009e007800014388006d
:102968001e007800e10f500008003a0001d4200052
:1029780080c620003cfc0700c422ef00f8080700ce
:1029880000d4200088fc07002a0037001e007800c9
:10299800e20f500008003a0001252100e0c920009c
:1029a80031fc0700c422ef00ed08070000252100d4
:1029b80095fc07001f0037001e007800e30f500049
:1029c80008003a000176210040cd200026fc0700cf
:1029d800c422ef00e208070000762100a2fc0700ed
:1029e800140037001e007800e40f500011003a0070
:1029f80001d4200080c620001bfc0700012521000f
:102a0800e0c9200018fc07000176210040cd200015
:102a180015fc0700c422ef00d108070000d42000ed
:102a280061fc07000025210077fc070000762100e3
:102a38008dfc07000080fa00000006000200fa0082
:102a4800000f78001e007800cf80de00d200200042
:102a580003002000820f5000838f580047003e007b
:102a6800006001000d003700100037001300370028
:102a780016003700190037001c0037001f00370008
:102a88002200370025003700280037002b003700c8
:102a98002e00370031003700340037000043800033
:102aa800c1cd21008fff07003500370000438000ab
:102ab800e1d721008bff0700310037000043800079
:102ac80001e2210087ff07002d0037000043800046
:102ad80021ec210083ff0700290037000043800014
:102ae80041f621007fff07002500370000438000e2
:102af80061ca21007bff07002100370000438000e6
:102b080041db210077ff07001d00370000438000ec
:102b180061e5210073ff07001900370000438000ba
:102b2800a1de21006fff0700150037000043800079
:102b380021d121006bff07001100370000438000fe
:102b480081ef210067ff07000d0037000043800078
:102b5800c1e8210063ff0700090037000043800037
:102b6800e1f221005fff0700050037000043800005
:102b780001fd21005bff0700010037000000000095
:102b88000080fa00000006000200fa00000f78003a
:102b98001e007800e30f50001e003200e30f5000c3
:102ba80007003c00e10f500012003200e10f500016
:102bb80014003c000000e0000a0032002900370041
:102bc800e50f50001b003200e50f500015003500de
:102bd800e60f50001b003200e70f50001d003200c6
:102be8002000370000438000610022003dff0700fd
:102bf8001c00370000438000c189200039ff07000e
:102c080018003700004380006100220035ff0700ec
:102c18001400370000438000c189200031ff0700fd
:102c28001000370000438000c10322002dff070079
:102c38000c00370000438000c189200029ff0700ed
:102c48000800370000438000c103220025ff070069
:102c58000400370000438000c189200021ff0700dd
:102c6800000000000080fa00000006000200fa00e0
:102c78000000eb00000f780062032000a1d02000c4
:102c880040972000c4f807000000eb00000f780010
:102c98001f0037001e007800800040004097200089
:102ca800008040001000780012f02f000001410061
:102cb8001e007800800040004097200000804000ff
:102cc800020878001e00780080004000409720002d
:102cd80000804000100078000000e0000b003d007c
:102ce8001e007800800040004097200000804000cf
:102cf800100078000001ea001e0078008000400003
:102d08004097200000804000020878001e0fe8006d
:102d18001e007800fa0f5000deff34000080fa0031
:102d2800000006000000fa000043800041972000e0
:102d3800ecfe07000080fa00000006000200fa001e
:102d48000000eb00000f780062032000a1d02000f3
:102d58008090200090f807000000eb00000f78003a
:102d68001f0037001e00780080004000809020007f
:102d7800008040001000780012f02f000001410090
:102d88001e007800800040008090200000804000f5
:102d9800020878001e007800800040008090200023
:102da80000804000100078000000e0000b003d00ab
:102db8001e007800800040008090200000804000c5
:102dc800100078000001ea001e0078008000400032
:102dd8008090200000804000020878001e0fe80064
:102de8001e007800fa0f5000deff34006203200056
:102df800a1d02000e093200067f807000080fa00c7
:102e0800000006000200fa00000f78001e0078009b
:102e1800e10f50001e003200e10f500003003c009b
:102e28000000e0000600320055003700e20f5000b5
:102e38002b003200e30f50003d00320050003700f5
:102e480062032000e1932000208d200052f8070043
:102e580070488000c046880080488000d0468800be
:102e680090488000e0468800c049800010488800eb
:102e7800d049800020488800e04980003048880018
:102e880000438000218d200096fe07003c0037009b
:102e980062032000e1932000208d20003ef8070007
:102ea800d048800020478800e048800030478800ec
:102eb800f0488000404788004048800090468800dd
:102ec80050488000a046880060488000b0468800ce
:102ed80000438000218d200082fe07002800370073
:102ee80062032000e1932000208d20002af80700cb
:102ef800304980008047880040498000904788001a
:102f080050498000a0478800a0488000f04688000b
:102f1800b048800000478800c048800010478800fb
:102f280000438000218d20006efe0700140037004a
:102f380062032000e1932000208d200016f807008e
:102f480090498000e0478800a0498000f047880049
:102f5800b04980000048880060498000b047880078
:102f680070498000c047880080498000d0478800a9
:102f780000438000218d20005afe07000000000059
:102f88000080fa00000006000200fa00000f780036
:102f98001e0078000000e00003003200e10f50003e
:102fa800050032000800370000438000a1d020004f
:102fb8004cfe07000400370000438000c189200050
:102fc80048fe0700000000000080fa00000006002c
:102fd8000600fa00e4004700800878006400470013
:102fe80010007800e10f500040003200e20f50005e
:102ff8007a0032000000e000b4003a00100020001f
:10300800000f7800170037008000eb000e80e80002
:10301800010878000b0037000e80e80010007800e7
:103028008000400000c72100008040001e08780092
:103038000e80e80010007800e30040000e80e800f1
:10304800010878000e80e80010007800f90f5000a1
:10305800f1ff34000043800001c7210021fe070072
:103068001e8fe800e00f20009e007800808f50003f
:10307800e5ff3400f00f2000000f7800170037003c
:103088008000eb000e80e800010878000b00370094
:103098000e80e800100078008000400000c7210082
:1030a800008040001e0878000e80e80010007800bc
:1030b800e30040000e80e800010878000e80e80078
:1030c80010007800f90f5000f1ff34000043800031
:1030d80001c7210003fe07001e8fe9001e007800cb
:1030e8000000e000e6ff3c007900370010002000f7
:1030f800000f780017003700110020000e80e8004c
:10310800010878000b0037000e80e80010007800f6
:103118008000400000c72100008040001e087800a1
:103128000e80e80010007800e30040000e80e80000
:10313800010878000e80e80010007800fa0f5000af
:10314800f1ff34000043800001c72100e5fd0700be
:103158001e8fe800e00f20009e007800808f50004e
:10316800e5ff3400f00f2000000f7800170037004b
:10317800110020000e80e800010878000b003700dd
:103188000e80e800100078008000400000c7210091
:10319800008040001e0878000e80e80010007800cb
:1031a800e30040000e80e800010878000e80e80087
:1031b80010007800fa0f5000f1ff3400004380003f
:1031c80001c72100c7fd07001e8fe9001e00780017
:1031d800e10f5000e6ff3c003d00370010002000e2
:1031e800000f780017003700210020000e80e8004b
:1031f800010878000b0037000e80e8001000780006
:103208008000400000c72100008040001e087800b0
:103218000e80e80010007800e30040000e80e8000f
:10322800010878000e80e80010007800fb0f5000bd
:10323800f1ff34000043800001c72100a9fd070009
:103248001e8fe800e00f20009e007800808f50005d
:10325800e5ff3400f00f2000000f7800170037005a
:10326800210020000e80e800010878000b003700dc
:103278000e80e800100078008000400000c72100a0
:10328800008040001e0878000e80e80010007800da
:10329800e30040000e80e800010878000e80e80096
:1032a80010007800fb0f5000f1ff3400004380004d
:1032b80001c721008bfd07001e8fe9001e00780062
:1032c800e10f5000e6ff3c0001003700000000005d
:1032d8000080fa00000006000200fa000000eb007f
:1032e800000f780062032000a1d02000a09a2000df
:1032f80029f7070062032000a1d02000009e2000cb
:1033080025f7070062032000a1d0200060a120005b
:1033180021f7070062032000a1d02000c0a42000ec
:103328001df7070062032000a1d0200020a820007c
:1033380019f707000000eb00000f7800580037006d
:103348001e007800e20f5000030034001e007800d1
:10335800f80f5000190034001e007800800040006b
:10336800a09a2000008040008000eb00010878004f
:103378001e00780080004000009e20000080400071
:103388008000eb00010878001e00780080004000f3
:1033980060a12000008040008000eb000108780058
:1033a8001e00780080004000c0a42000008040007b
:1033b8008000eb0001087800380037001e00780014
:1033c800e50f5000030034001e007800f50f500090
:1033d800130034001e00780080004000a09a2000ee
:1033e800008040008000eb00010878001e00780093
:1033f80080004000009e2000008040008000eb001c
:10340800010878001e0078008000400060a12000bc
:10341800008040008000eb00010878001f003700a2
:103428001e007800e80f5000030034001e007800ea
:10343800f20f50000d0034001e007800800040009c
:10344800a09a2000008040008000eb00010878006e
:103458001e00780080004000009e20000080400090
:103468008000eb00010878000c0037001e0078008f
:10347800eb0f5000030034001e007800ee0f5000e0
:10348800060034001e00780080004000a09a20004a
:10349800008040008000eb00010878001e0fe80063
:1034a8001e007800fa0f5000a5ff34000080fa00d3
:1034b800000006000200fa00000f78001e007800e5
:1034c800e30f50001e003200e30f500007003c00dd
:1034d800e10f500012003200e10f500014003c00d0
:1034e8000000e0000a00320029003700e50f500014
:1034f8001b003200e50f500015003500e60f5000a4
:103508001b003200e70f50001d003200200037007a
:1035180000438000a19a2000f2fc07001c0037003d
:1035280000438000019e2000eefc070018003700d1
:103538000043800061a12000eafc07001400370066
:1035480000438000c1a42000e6fc070010003700fb
:103558000043800021a82000e2fc07000c0037008f
:1035680000438000c1a42000defc070008003700eb
:103578000043800061a12000dafc07000400370046
:1035880000438000019e2000d6fc070000000000d8
:103598000080fa00000006000200fa000000eb00bc
:1035a800000f780062032000a1d0200080ab20002b
:1035b80079f6070062032000a1d02000e0ae2000c9
:1035c80075f6070062032000a1d0200040b2200059
:1035d80071f6070062032000a1d02000a0b52000ea
:1035e8006df6070062032000a1d0200000b920007a
:1035f80069f6070062032000a1d0200060bc20000b
:1036080065f6070062032000a1d02000c0bf20009b
:1036180061f6070062032000a1d0200020c320002b
:103628005df60700a0012000000f78007101370047
:103638001e007800f70f50002b0034001e007800a1
:103648008000400080ab2000008040008000eb003c
:10365800010878001e00780080004000e0ae2000dd
:10366800008040008000eb00010878001e00780010
:103678008000400040b22000008040008000eb0045
:10368800010878001e00780080004000a0b52000e6
:10369800008040008000eb00010878001e007800e0
:1036a8008000400000b92000008040008000eb004e
:1036b800010878001e0078008000400060bc2000ef
:1036c800008040008000eb00010878001e007800b0
:1036d80080004000c0bf2000008040008000eb0058
:1036e80001087800420137001e007800f40f5000ee
:1036f800250034001e0078008000400080ab2000c8
:10370800008040008000eb00010878001e0078006f
:1037180080004000e0ae2000008040008000eb0008
:10372800010878001e0078008000400040b22000a8
:10373800008040008000eb00010878001e0078003f
:1037480080004000a0b52000008040008000eb0011
:10375800010878001e0078008000400000b92000b1
:10376800008040008000eb00010878001e0078000f
:103778008000400060bc2000008040008000eb001a
:10378800010878001a0137001e007800f10f500078
:10379800250034001e0078008000400080ab200027
:1037a800008040008000eb00010878001e007800cf
:1037b80080004000e0ae2000008040008000eb0068
:1037c800010878001e0078008000400040b2200008
:1037d800008040008000eb00010878001e0078009f
:1037e80080004000a0b52000008040008000eb0071
:1037f800010878001e0078008000400000b9200011
:10380800008040008000eb00010878001e0078006e
:103818008000400020c32000008040008000eb00b2
:1038280001087800f20037001e007800ee0f500003
:10383800250034001e0078008000400080ab200086
:10384800008040008000eb00010878001e0078002e
:1038580080004000e0ae2000008040008000eb00c7
:10386800010878001e0078008000400040b2200067
:10387800008040008000eb00010878001e007800fe
:1038880080004000a0b52000008040008000eb00d0
:10389800010878001e00780080004000c0bf2000aa
:1038a800008040008000eb00010878001e007800ce
:1038b8008000400020c32000008040008000eb0012
:1038c80001087800ca0037001e007800eb0f50008e
:1038d800250034001e0078008000400080ab2000e6
:1038e800008040008000eb00010878001e0078008e
:1038f80080004000e0ae2000008040008000eb0027
:10390800010878001e0078008000400040b22000c6
:10391800008040008000eb00010878001e0078005d
:103928008000400060bc2000008040008000eb0068
:10393800010878001e00780080004000c0bf200009
:10394800008040008000eb00010878001e0078002d
:103958008000400020c32000008040008000eb0071
:1039680001087800a20037001e007800e80f500018
:10397800250034001e0078008000400080ab200045
:10398800008040008000eb00010878001e007800ed
:1039980080004000e0ae2000008040008000eb0086
:1039a800010878001e0078008000400000b920005f
:1039b800008040008000eb00010878001e007800bd
:1039c8008000400060bc2000008040008000eb00c8
:1039d800010878001e00780080004000c0bf200069
:1039e800008040008000eb00010878001e0078008d
:1039f8008000400020c32000008040008000eb00d1
:103a0800010878007a0037001e007800e50f5000a2
:103a1800250034001e0078008000400080ab2000a4
:103a2800008040008000eb00010878001e0078004c
:103a380080004000a0b52000008040008000eb001e
:103a4800010878001e0078008000400000b92000be
:103a5800008040008000eb00010878001e0078001c
:103a68008000400060bc2000008040008000eb0027
:103a7800010878001e00780080004000c0bf2000c8
:103a8800008040008000eb00010878001e007800ec
:103a98008000400020c32000008040008000eb0030
:103aa80001087800520037001e007800e20f50002d
:103ab800250034001e0078008000400040b220003d
:103ac800008040008000eb00010878001e007800ac
:103ad80080004000a0b52000008040008000eb007e
:103ae800010878001e0078008000400000b920001e
:103af800008040008000eb00010878001e0078007c
:103b08008000400060bc2000008040008000eb0086
:103b1800010878001e00780080004000c0bf200027
:103b2800008040008000eb00010878001e0078004b
:103b38008000400020c32000008040008000eb008f
:103b4800010878002a0037001e0078008000400035
:103b5800e0ae2000008040008000eb000108780003
:103b68001e0078008000400040b220000080400025
:103b78008000eb00010878001e00780080004000fb
:103b8800a0b52000008040008000eb00010878000c
:103b98001e0078008000400000b92000008040002e
:103ba8008000eb00010878001e00780080004000cb
:103bb80060bc2000008040008000eb000108780015
:103bc8001e00780080004000c0bf20000080400038
:103bd8008000eb00010878001e007800800040009b
:103be80020c32000008040008000eb00010878001e
:103bf8001e0fe9001e0078000000e0008cfe3d006a
:103c08000080fa00000006000200fa00000f7800a9
:103c18001e007800cf80de00d200200003002000c4
:103c2800820f5000838f580047003e00006001005b
:103c38000d0037001000370013003700160037005a
:103c4800190037001c0037001f003700220037001a
:103c580025003700280037002b0037002e003700da
:103c680031003700340037000043800081ab20006a
:103c78001cfb07003500370000438000e1ae200040
:103c880018fb0700310037000043800041b22000d4
:103c980014fb07002d00370000438000a1b5200069
:103ca80010fb0700290037000043800001b92000fd
:103cb8000cfb0700250037000043800061bc200092
:103cc80008fb07002100370000438000c1bf200027
:103cd80004fb07001d0037000043800021c32000bb
:103ce80000fb07001900370000438000c1bf200017
:103cf800fcfa0700150037000043800061bc200073
:103d0800f8fa0700110037000043800001b92000cd
:103d1800f4fa07000d00370000438000a1b5200029
:103d2800f0fa0700090037000043800041b2200084
:103d3800ecfa07000500370000438000e1ae2000e0
:103d4800e8fa070001003700000000000080fa00d0
:103d5800000006000200fa000000eb00000f7800e7
:103d6800a00f20005b0307001e00780000407800c9
:103d7800614060000080fb00610060004700dd00da
:103d8800611680000170a1000100700060168800b3
:103d98001e00780000407800614060000080fb0051
:103da800610060004600dd00611680000160a1002e
:103db80001007000601688001e0078000000e00016
:103dc800030032000000eb00000f7800e4ff37002a
:103dd80010002000000f7800e1ff37000000fa0013
:103de800c902a8006ac0a800113a8000f00b2000a0
:103df8000081600060042000710520002374200009
:103e080080497800814978008249780071348000bf
:103e180000fe2f00008060000030a0007034880091
:103e2800103a8000000178000260a00060042000c1
:103e380071052000237420008049780081497800aa
:103e4800824978001021ef0081088000f0fc2f00e3
:103e5800008060000050a000800888000080eb000f
:103e6800600888000621ef004221ef0042e1a80027
:103e7800110a8000f0f92f0000806000100a880005
:103e8800110a800080ff2f00008060000010a00051
:103e9800100a880021058000f0f82f00808060005b
:103ea8000006200001007000200588003105800010
:103eb8000000270001007000300588008420a90058
:103ec8009420a80094e0a80084e0a90011e1a800cb
:103ed8000080fa00000006000000fa00c8e2a9000d
:103ee800c8c2a9000080fa00000006000604fa0013
:103ef80010002000ce0207008040eb000040eb00dd
:103f08002d030700e6004700d28e2800ff030900b2
:103f1800b25878000000eb00000f78008000eb003a
:103f28000e80e800010878002d0037008000eb00c3
:103f38006400470001087800180037006400470053
:103f480010007800700040008e80e8009100780032
:103f5800c508dd0000804000000047006600400002
:103f6800904078006400470010007800700040001e
:103f780022072200000041001040780080cf500046
:103f880001003a001e0fe8006400470010007800a6
:103f98008000e800640047000108780064004700da
:103fa80010007800ec0f5000e4ff34001e00780089
:103fb800ed0f500003003a000000eb00000f7800fe
:103fc8000b0037000000eb00000f78000e80e800bf
:103fd800100078008000e8000e80e80001087800f2
:103fe8000e80e80010007800ff0f5000cfff34006b
:103ff8000e80e80010007800ff0f500001003c0020
:10400800cce2a8000e80e80010007800cf80de0027
:10401800f201200003002000820f5000838f580017
:10402800cf003e00006001001f003700210037006c
:1040380026003700280037002c00370033003700ef
:10404800380037003d00370042003700470037008e
:104058004c00370051003700550037005a00370030
:104068005f00370064003700680037006d003700d4
:104078007200370077003700790037007e0037007c
:1040880083003700880037008a0037008f00370028
:1040980093003700980037009d003700a1003700d3
:1040a800a5003700a9003700e0802800d0020700eb
:1040b800ae00370040812800cd0207000043800091
:1040c800c189200007fa0700a8003700a08128004e
:1040d800c7020700a500370000822800c4020700b5
:1040e80030c7b30062e8b700a0003700608228003c
:1040f800bf02070000438000c1cd2100f9f9070085
:1041080010c6b30062e8b70098003700c0822800e4
:10411800b70207000043800061ca2100f1f90700d7
:104128009200370020832800b10207000043800076
:1041380021d12100ebf907008c003700808328008b
:10414800ab0207000043800081d42100e5f9070095
:1041580086003700e0832800a5020700004380009e
:10416800e1d72100dff907008000370040842800ec
:104178009f0207000043800041db2100d9f90700b6
:104188007a003700a08428009902070000438000c5
:10419800a1de2100d3f9070074003700108528003c
:1041a8009302070070c6b30062e8b7006f003700db
:1041b800808528008e0207000043800001e221006c
:1041c800c8f9070069003700f08528008802070051
:1041d8000043800061e52100c2f907006300370051
:1041e800608628008202070000438000c1e82100a1
:1041f800bcf907005d003700d08628007c02070064
:1042080060c6b30062e8b70058003700408728004e
:10421800770207000043800021ec2100b1f9070074
:1042280052003700b0872800710207000043800061
:1042380081ef2100abf907004c00370020882800e7
:104248006b02070000438000e1f22100a5f9070096
:1042580046003700908828006502070043003700b1
:1042680000892800620207000043800041f621000f
:104278009cf907003d003700708928005c020700a0
:1042880000438000a1f9210096f9070037003700a4
:10429800e0892800560207000043800001fd210044
:1042a80090f9070031003700508a280050020700b3
:1042b8002e003700c08a28004d02070006fc0700c0
:1042c80070c7b30062e8b70028003700308b2800b9
:1042d8004702070060c7b30062e8b7002300370051
:1042e800a08b28004202070094fa070040c7b300d9
:1042f80062e8b7001d003700108c28003c02070058
:10430800a5fc070090c7b30062e8b70017003700a4
:10431800808c280036020700100020000043880027
:1043280012003700f08c280031020700200020001e
:10433800004388000d003700608d28002c0207001c
:10434800300020000043880008003700d08d280086
:1043580027020700400020000043880003003700c0
:10436800408e280022020700000000000e80e800ae
:1043780010007800ea0f500004003c000e80e800ae
:1043880010007800e30f500018003c000e80e80091
:1043980010007800ee0f500004003c000e80e8008a
:1043a80010007800eb0f500010003c000e80e80071
:1043b80010007800f20f500004003c000e80e80066
:1043c80010007800ef0f500008003c000e80e80055
:1043d80010007800f60f500006003c000e80e80040
:1043e80010007800f30f50000200340010c6b3002c
:1043f80062e8b700803e2000b6010700cce2a900c1
:10440800100020008a0107000080fa000000060062
:020000040000fa
:1044180072200000200000000000000000080000da
:1044280034000000000000006408000002000000e2
:104438000200000001000000a61c0000cc030000e0
:1044480002000000ff00000000000000ff00000064
:1044580000000000ff00000000000000ff00000056
:1044680000000000ff00000000000000ff00000046
:1044780000000000ff00000000000000ff00000036
:1044880000000000ff000000000000000000ff0026
:10449800000000000000ff00000000000000ff0016
:1044a800000000000000ff00000000000000ff0006
:1044b800000000000000ff00000000000000ff00f6
:1044c800000000000000ff00000000000000ff00e6
:1044d800000000000000000000ff000000000000d5
:1044e80000ff00000000000000ff000000000000c6
:1044f80000ff00000000000000ff000000000000b6
:1045080000ff00000000000000ff000000000000a5
:1045180000ff00000000000000ff0000ff00ff0097
:1045280000ff0000ff00ff0000ff0000ff00ff0089
:1045380000ff0000ff00ff0000ff0000ff00ff0079
:1045480000ff0000ff00ff0000ff0000ff00ff0069
:1045580000ff0000ff00ff0000ff0000ff00ff0059
:1045680000ff00000f00ff00000000000f00ff0028
:10457800000000000f00ff00000000000f00ff0017
:10458800000000000f00ff00000000000f00ff0007
:10459800000000000f00ff00000000000f00ff00f7
:1045a800000000000f00ff0000000000ff000000f6
:1045b80000140000ff00000000140000ff000000cd
:1045c80000140000ff00000000140000ff000000bd
:1045d80000140000ff00000000140000ff000000ad
:1045e80000140000ff00000000140000ff0000009d
:1045f800001400005000000000ff00005000000000
:1046080000ff00005000000000ff00005000000004
:1046180000ff00005000000000ff000050000000f4
:1046280000ff00005000000000ff000050000000e4
:1046380000ff00005000000000ff00001e00ff0007
:10464800000000001e00ff00000000001e00ff0028
:10465800000000001e00ff00000000001e00ff0018
:10466800000000001e00ff00000000001e00ff0008
:10467800000000001e00ff00000000001e00ff00f8
:1046880000000000ff00000000ff0000ff00000025
:1046980000ff0000ff00000000ff0000ff00000016
:1046a80000ff0000ff00000000ff0000ff00000006
:1046b80000ff0000ff00000000ff0000ff000000f6
:1046c80000ff0000ff00000000ff000000007f0066
:1046d80000ff000000007f0000ff000000007f00d6
:1046e80000ff000000007f0000ff000000007f00c6
:1046f80000ff000000007f0000ff000000007f00b6
:1047080000ff000000007f0000ff000000007f00a5
:1047180000ff00003200ff00000000003200ff0030
:10472800000000003200ff00000000003200ff001f
:10473800000000003200ff00000000003200ff000f
:10474800000000003200ff00000000003200ff00ff
:10475800000000003200ff00000000000000000020
:10476800004b000000000000004b000000000000ab
:10477800004b000000000000004b0000000000009b
:10478800004b000000000000004b0000000000008b
:10479800004b000000000000004b0000000000007b
:1047a800004b00000000ff0000ff00000000ff00b9
:1047b80000ff00000000ff0000ff00000000ff00f5
:1047c80000ff00000000ff0000ff00000000ff00e5
:1047d80000ff00000000ff0000ff00000000ff00d5
:1047e80000ff00000000ff0000ff0000ff00ff00c6
:1047f80000000000ff00ff0000000000ff00ff00b5
:1048080000000000ff00ff0000000000ff00ff00a4
:1048180000000000ff00ff0000000000ff00ff0094
:1048280000000000ff00ff0000000000ff00ff0084
:104838000000000000000000000f00000000000061
:10484800000f000000000000000f00000000000042
:10485800000f000000000000000f00000000000032
:10486800000f000000000000000f00000000000022
:10487800000f000000000000000f00000000ff0013
:10488800007f00000000ff00007f00000000ff0024
:10489800007f00000000ff00007f00000000ff0014
:1048a800007f00000000ff00007f00000000ff0004
:1048b800007f00000000ff00007f00000000ff00f4
:1048c800007f00000000000000ff00000000000062
:1048d80000ff00000000000000ff000000000000d2
:1048e800003200003200320000ff0000000000002b
:1048f80000ff00000000000000ff000000000000b2
:1049080000ff00000000000000ff00000000ff00a2
:10491800000000000000ff00000000000000ff0091
:10492800000000000000ff0000000000320032001c
:10493800003200000000ff00000000000000ff003f
:10494800000000000000ff00000000000000ff0061
:10495800000000006608000040140000000000008d
:10496800340800002c00000000000000600800006f
:1049780004000000020000000400610000000000c4
:04498800000000002b
:020000040000fa
:10498c000000fa00d0092000a01088008a40a9007d
:10499c0017e2a800e15622002003200001000100cc
:1049ac00c15122008003200001000100c1512200ee
:1049bc009003200001000100c151220040012000a1
:1049cc0001000100c151220000072000010001007c
:1049dc00c15122006005200001000100c1512200dc
:1049ec00c006200001000100e1562200800c2000ce
:1049fc0001000100c15122008003200001000100d0
:104a0c00c1512200c000200001000100c151220050
:104a1c001000200001000100e156220010002000cf
:104a2c00010001000080fa00000006000200fa00fc
:104a3c00000f78008a40a9001602a80000000000b0
:104a4c00b0108000610060000000e000fcff3a0044
:104a5c008a40a900c00720009010880000000000c8
:104a6c0050048000640060000000e000fcff320095
:104a7c008a40a9001222ef000000000050048000c0
:104a8c00640060000000e000fcff32008a40a900d6
:104a9c001e00780090108800000000005004800078
:104aac00640060000000e000fcff32008a40a900b6
:104abc001642a80000000000b010800064006000e6
:104acc000000e000fcff3a000080fa000000060045
:104adc000200fa00000f7800020037007e3e090049
:104aec00000000001e00780000f0a7000000ea00a3
:104afc000000ea004f00de00004078001e0fe900c5
:104b0c000004e000f5ff3a000080fa000000060007
:104b1c000200fa00004f78001602a8000000000006
:104b2c00b0108000610060000000e000fcff3a0063
:104b3c008a40a900c00720009010880000000000e7
:104b4c0050048000640060000000e000fcff3200b4
:104b5c008a40a9000004200090108800000000008a
:104b6c0050048000640060000000e000fcff320094
:104b7c008a40a9001e00fb00901088000000000075
:104b8c0050048000640060000000e000fcff320074
:104b9c008a40a9001642a80000000000b010800056
:104bac00640060000000e000fcff3a000080fa00a6
:104bbc00000006000200fa00004f78000e00e8002a
:104bcc00014878001e00fb00c600dd000e00e80066
:104bdc00104078000000fb00008040000008b0008e
:104bec0092ff07000080fa00000006000400fa00a3
:104bfc00881f78008e80e800800878000000eb00a9
:104c0c00000f7800070037009e0078000e80e80047
:104c1c00100078000100400010407800bcff070035
:104c2c001e0fe8001e0478000e80e80010007800cb
:104c3c00dff00700800f5400f3ff39004f047800b9
:104c4c000080fa00000006000000fa00c0012000fd
:104c5c0076ff07000080fa00000006000000fa0052
:104c6c008001200071ff07000080fa0000000600a0
:104c7c00c422ec000400090000000000c422ef0074
:104c8c00090009000000000000000600c422ec002e
:104c9c000b00090000000000c422ef000200090014
:104cac0000000000000006002000200020168800f4
:104cbc000400090000000000c422ef0009000900f4
:104ccc0000000000000006002000200020168800d4
:104cdc000b00090000000000c422ef0002000900d4
:104cec0000000000000006000001200020168800d3
:104cfc000400090000000000c422ef0009000900b4
:104d0c0000000000000006000001200020168800b2
:104d1c000b00090000000000c422ef000200090093
:104d2c000000000000000600c422ec000400090092
:104d3c0000000000c422ef00090009000000000080
:104d4c0000000600c422ec000b000900000000006b
:104d5c00c422ef0000000000000006001d03090043
:104d6c0000000000000006003a3e090000000000b0
:104d7c00000006000000fa00213a8000f08f2f009e
:104d8c0000806000203a8800f0ff2900601988003c
:104d9c0011028000f0f12f000080600010028800ea
:104dac000080fa00000006000000fa00f1ff070086
:104dbc000ef30700f2fe07008040eb000040eb0012
:104dcc007cff0700e0ce280088ff07008040eb0046
:104ddc0010c0b30077ff070050cf280083ff0700f7
:104dec00803e20003aff0700100020000fff070054
:104dfc00f9fb070037fc0700fcf20700ffff370048
:020000040000fa
:020000040001f9
:0457f8000ff90000a5
:020000040000fa
:020000040001f9
:0457fc007f3f0000eb
:00000001FF
